:100000000C94B3000C94D2000C94D2000C94D20047
:100010000C94D2000C94D2000C94D2000C94D20018
:100020000C94D2000C94D2000C94DA0A0C94D200F6
:100030000C94D2000C94D2000C94D2000C94D200F8
:100040000C94D2000C94D2000C94D2000C94D200E8
:100050000C94D2000C94D2000C94D2000C94D200D8
:100060000C94D2000C94D2000C94D2000C94D200C8
:100070000C94D2000C94D2000C94D2000C94D200B8
:100080000C94D2000C94D2000C94D2000C94D200A8
:100090000C94D2000C94D2008830853062305F30EE
:1000A0005C305930563053302E342034AA30A630CC
:1000B000293424341830143047303F3037302F3053
:1000C0002730243020301C304F30D32EAB2D5A2B0C
:1000D000D928452B080330003000310000004003D0
:1000E0004E004F0052007700610079002000500060
:1000F00053003300200046006C006100730068006C
:100100006500720020002800430075007300740031
:100110006F006D00200055005300420029000000D0
:100120000E036A007500640067006500730000003C
:100130000403090409022000010100C07D09040034
:100140000002FF00000007058102400000070502D1
:100150000240000012010002000000080BB0BEBA0D
:1001600000000102030111241FBECFEFD0E2DEBF69
:10017000CDBF12E0A0E0B1E0E4E2FDE700E00BBF9C
:1001800002C007900D92A23EB107D9F713E0A2EE8C
:10019000B2E001C01D92A937B107E1F70E94902893
:1001A0000C94903E0C940000A0E3B0E0EAEDF0E087
:1001B0000C945B3E298F3A8F4B8F5C8F6D8F7E8FB7
:1001C0008F8F98A3A98ABA8ACB8ADC8AED8AFE8AA5
:1001D0000F8B188F098D1A8D2B8D3C8D09A31AA3B7
:1001E0002BA33CA3680179018FEF9FEFA0E0B0E063
:1001F000C822D922EA22FB2289012227332709A714
:100200001AA72BA73CA709891A892B893C890DA31A
:100210001EA32FA338A74801590188229922AA2298
:10022000BB22290166247724C501B401A7019601E8
:100230000E94183E6DA77EA78FA798ABC301B2019D
:100240000E94183E6B017C01C501B40129A53AA5A5
:100250004BA55CA50E94183E4B015C01C301B20195
:100260000E94183EAB01BC01C80CD91CEA1CFB1C47
:100270000DA51EA52FA538A9C901AA27BB27C80E01
:10028000D91EEA1EFB1EC814D904EA04FB0420F49C
:10029000405050406F4F7F4FC701AA27BB27840FA4
:1002A000951FA61FB71F8D839E83AF83B8877601E6
:1002B000DD24CC244DA55EA56FA578A96070707073
:1002C000C40ED51EE61EF71EC982DA82EB82FC82BE
:1002D0001C2D0A818B804C808D878E818E878F812B
:1002E0008F878885888B2D893E894F89588D69A194
:1002F0007AA18BA19CA10E94183E6B017C012D8DDF
:100300003E8D4F8D58A16DA17EA18FA198A50E9411
:10031000183EDC01CB01C80ED91EEA1EFB1E8D85DE
:100320009E85AF85B8898C0D9D1DAE1DBF1D8D8727
:100330009E87AF87B88B682F7E85212F302F482D61
:10034000542D8F859889E096E0E10C94773ECF920A
:10035000DF92EF92FF920F93CF93DF93CDB7DEB78B
:1003600060970FB6F894DEBF0FBECDBF002309F42F
:100370005AC029873A874B875C876D877E878F872E
:10038000988B80E2801B4D855E856F857889181675
:10039000B4F01D821E821F821886992787FD9095D2
:1003A000909581959F4F04C0769567955795479591
:1003B0008A95D2F749835A836B837C832CC06A0168
:1003C0007B01002E04C0F694E794D794C7940A9456
:1003D000D2F7CD82DE82EF82F8866A017B0104C00B
:1003E000CC0CDD1CEE1CFF1C8A95D2F7D701C60190
:1003F00049855A856B857C8504C0769567955795A8
:1004000047950A95D2F7842B952BA62BB72B89837A
:100410009A83AB83BC8329813A814B815C816D8156
:100420007E818F81988560960FB6F894DEBF0FBEEF
:10043000CDBFDF91CF910F91FF90EF90DF90CF90E4
:100440000895CF92DF92EF92FF920F93CF93DF93B5
:10045000CDB7DEB760970FB6F894DEBF0FBECDBF45
:10046000002309F45AC029873A874B875C876D8738
:100470007E878F87988B80E2801B49855A856B85A4
:100480007C851816B4F019821A821B821C82992767
:1004900087FD9095909581959F4F04C0440F551FFF
:1004A000661F771F8A95D2F74D835E836F837887A7
:1004B0002CC06A017B01002E04C0CC0CDD1CEE1C9C
:1004C000FF1C0A94D2F7C982DA82EB82FC826A01AD
:1004D0007B0104C0F694E794D794C7948A95D2F729
:1004E000D701C6014D855E856F85788904C0440FAC
:1004F000551F661F771F0A95D2F7842B952BA62BC5
:10050000B72B8D839E83AF83B88729813A814B8136
:100510005C816D817E818F81988560960FB6F8949D
:10052000DEBF0FBECDBFDF91CF910F91FF90EF9057
:10053000DF90CF900895A4E3B0E0E1EAF2E00C94FC
:100540005A3E298B3A8B4B8B5C8B6D8B7E8B8F8BC2
:10055000988FA986BA86CB86DC86ED86FE860F87C5
:10056000188B89849A84AB84BC848D859E85AF85E5
:10057000B88909891A892B893C890DA31EA32FA349
:1005800038A7CD88DE88EF88F88C0097A105B105E3
:1005900009F0B5C3C814D904EA04FB0408F04DC13E
:1005A00010E0811610E0910611E0A10610E0B106FE
:1005B00058F42FEF82169104A104B10409F090F4CD
:1005C00080E090E0DC0117C030E0831630E0930655
:1005D00030E0A30631E0B30650F480E190E0A0E003
:1005E000B0E009C088E090E0A0E0B0E004C088E19D
:1005F00090E0A0E0B0E0B501A401082E04C076951B
:100600006795579547950A94D2F7FA01EE51FE4F38
:10061000208140E250E060E070E0481B590B6A0B1B
:100620007B0B421B51096109710941155105610597
:100630007105A1F1042E04C0880C991CAA1CBB1CD6
:100640000A94D2F797018601042E04C0000F111FEF
:10065000221F331F0A94D2F780E290E0841B950B8F
:10066000CDA0DEA0EFA0F8A404C0F694E794D79440
:10067000C7948A95D2F7C02AD12AE22AF32A0DA17B
:100680001EA12FA138A504C0000F111F221F331F68
:100690004A95D2F70DA31EA32FA338A725016624E0
:1006A0007724950184012070307009A31AA32BA32D
:1006B0003CA3C701B601A30192010E94373E2D8FD2
:1006C0003E8F4F8F58A3698F7A8F8B8F9C8FC70176
:1006D000B601A30192010E94373ECA01B90129A1C6
:1006E0003AA14BA15CA10E94183EAB01BC01098D4F
:1006F0001A8D2B8D3C8D7801DD24CC240DA11EA1FB
:100700002FA138A5C901AA27BB27C82AD92AEA2AB6
:10071000FB2A0D8D1E8D2F8D38A1C416D506E60639
:10072000F70638F50150104020403040098F1A8FED
:100730002B8F3C8FC80CD91CEA1CFB1CC814D90495
:10074000EA04FB04D0F0C416D506E606F706A8F4C2
:100750000D8D1E8D2F8D38A102501040204030404D
:10076000098F1A8F2B8F3C8FC80CD91CEA1CFB1CDD
:1007700004C0098F1A8F2B8F3C8FC41AD50AE60A42
:10078000F70AC701B601A30192010E94373E2D8FDF
:100790003E8F4F8F58A369A77AA78BA79CA7C70145
:1007A000B601A30192010E94373ECA01B90129A1F5
:1007B0003AA14BA15CA10E94183E6B017C0149A5A6
:1007C0005AA56BA57CA59A01112700274DA15EA112
:1007D0006FA178A560707070042B152B262B372B1A
:1007E0008D8D9E8DAF8DB8A10C151D052E053F0575
:1007F000C0F40197A109B109080D191D2A1D3B1D5F
:10080000081519052A053B0560F00C151D052E0578
:100810003F0538F48D8D9E8DAF8DB8A10297A1094B
:10082000B109098D1A8D2B8D3C8D7801DD24CC24E6
:10083000C82AD92AEA2AFB2AA5C481149104A10452
:10084000B10451F461E070E080E090E0A501940112
:100850000E94373E49015A0110E0811610E09106CE
:1008600011E0A10610E0B10658F42FEF82169104B2
:10087000A104B10409F090F480E090E0DC0117C01D
:1008800030E0831630E0930630E0A30631E0B30693
:1008900050F480E190E0A0E0B0E009C088E090E092
:1008A000A0E0B0E004C088E190E0A0E0B0E0B501D5
:1008B000A401082E04C076956795579547950A942C
:1008C000D2F7FA01EE51FE4F2081AC01BD01420F7B
:1008D000511D611D711D80E290E0A0E0B0E0841B1D
:1008E000950BA60BB70B51F4C818D908EA08FB08FA
:1008F000F1E04F2E512C612C712C24C1082E04C024
:10090000880C991CAA1CBB1C0A94D2F7970186017B
:10091000042E04C036952795179507950A94D2F7AB
:1009200009A31AA32BA33CA397018601082E04C098
:10093000000F111F221F331F0A94D2F70D8F1E8F35
:100940002F8F38A30DA11EA12FA138A504C0369565
:100950002795179507954A95D2F7B901A8010D8DEE
:100960001E8D2F8D38A1042B152B262B372B0D8F89
:100970001E8F2F8F38A30DA11EA12FA138A504C053
:10098000000F111F221F331F8A95D2F70DA31EA33C
:100990002FA338A7250166247724950184012070B0
:1009A000307009A71AA72BA73CA769A17AA18BA130
:1009B0009CA1A30192010E94373E298F3A8F4B8F51
:1009C0005C8F6B017C0169A17AA18BA19CA1A30121
:1009D00092010E94373ECA01B90129A53AA54BA54B
:1009E0005CA50E94183EAB01BC017601DD24CC243D
:1009F0000D8D1E8D2F8D38A1C901AA27BB27C82AAE
:100A0000D92AEA2AFB2A098D1A8D2B8D3C8DC41612
:100A1000D506E606F70638F5015010402040304074
:100A200009A31AA32BA33CA3C80CD91CEA1CFB1CCA
:100A3000C814D904EA04FB04D0F0C416D506E606AF
:100A4000F706A8F4098D1A8D2B8D3C8D02501040AD
:100A50002040304009A31AA32BA33CA3C80CD91CE7
:100A6000EA1CFB1C04C009A31AA32BA33CA3C41AB1
:100A7000D50AE60AF70AC701B601A30192010E944E
:100A8000373E298F3A8F4B8F5C8F6DA77EA78FA73C
:100A900098ABC701B601A30192010E94373ECA017B
:100AA000B90129A53AA54BA55CA50E94183E8B016A
:100AB0009C014DA55EA56FA578A9DA019927882725
:100AC0004D8D5E8D6F8D78A160707070842B952B2D
:100AD000A62BB72B498D5A8D6B8D7C8D8017910776
:100AE000A207B307F0F44150504060407040880DB9
:100AF000991DAA1DBB1D88159905AA05BB0588F07F
:100B000080179107A207B30760F4498D5A8D6B8D4A
:100B10007C8D4250504060407040880D991DAA1D48
:100B2000BB1D6C017D01C01AD10AE20AF30A09A1BA
:100B30001AA12BA13CA1380155244424442A552A4A
:100B4000662A772A8501222733270D8F1E8F2F8F44
:100B500038A3950184012070307009A71AA72BA72C
:100B60003CA7C701B6012D8D3E8D4F8D58A10E9427
:100B7000373E298F3A8F4B8F5C8F69A37AA38BA363
:100B80009CA3C701B6012D8D3E8D4F8D58A10E94AB
:100B9000373ECA01B90129A53AA54BA55CA50E941B
:100BA000183EAB01BC0109A11AA12BA13CA17801FF
:100BB000DD24CC240DA11EA12FA138A5C901AA278F
:100BC000BB27C82AD92AEA2AFB2A098D1A8D2B8D20
:100BD0003C8DC416D506E606F70638F501501040E0
:100BE0002040304009A31AA32BA33CA3C80CD91C56
:100BF000EA1CFB1CC814D904EA04FB04D0F0C41698
:100C0000D506E606F706A8F4098D1A8D2B8D3C8DC6
:100C1000025010402040304009A31AA32BA33CA34C
:100C2000C80CD91CEA1CFB1C04C009A31AA32BA3E3
:100C30003CA3C41AD50AE60AF70AC701B6012D8DEE
:100C40003E8D4F8D58A10E94373E298F3A8F4B8F92
:100C50005C8F6DA77EA78FA798ABC701B6012D8DBE
:100C60003E8D4F8D58A10E94373ECA01B90129A57A
:100C70003AA54BA55CA50E94183E8B019C014DA591
:100C80005EA56FA578A9DA01992788274DA15EA1F5
:100C90006FA178A560707070842B952BA62BB72B55
:100CA000498D5A8D6B8D7C8D80179107A207B307F4
:100CB000D0F44150504060407040880D991DAA1DED
:100CC000BB1D88159905AA05BB0568F0801791071B
:100CD000A207B30740F4498D5A8D6B8D7C8D42502D
:100CE00050406040704009A11AA12BA13CA178019D
:100CF000DD24CC24C42AD52AE62AF72A46C2C816FF
:100D0000D906EA06FB0608F42DC2803010E09107F0
:100D100011E0A10710E0B10750F48F3F9105A10544
:100D2000B10509F088F400E010E0980116C08030A9
:100D300020E0920720E0A20721E0B20750F400E192
:100D400010E020E030E009C008E010E020E030E0F2
:100D500004C008E110E020E030E0AC01BD01002E4D
:100D600004C076956795579547950A94D2F7FA018E
:100D7000EE51FE4F4081040F111D211D311D40E237
:100D800050E060E070E0401B510B620B730BA1F46C
:100D90008C159D05AE05BF0508F4EBC10DA11EA184
:100DA0002FA138A5442455243201081519052A0518
:100DB0003B0508F0E1C1D9C1342E2C013D0104C02E
:100DC000440C551C661C771C4A95D2F7D501C4010A
:100DD000002E04C0B695A795979587950A94D2F7EB
:100DE000482A592A6A2A7B2AA5019401032C04C0A7
:100DF000220F331F441F551F0A94D2F729A73AA781
:100E00004BA75CA7B701A601002E04C07695679595
:100E1000579547950A94D2F749A35AA36BA37CA38D
:100E2000C701B601032C04C0660F771F881F991FE6
:100E30000A94D2F76D8F7E8F8F8F98A38DA19EA17C
:100E4000AFA1B8A504C0B695A795979587950A95C3
:100E5000D2F74D8D5E8D6F8D78A1482B592B6A2B63
:100E60007B2B4D8F5E8F6F8F78A34301AA24BB2409
:100E700093018201207030700DA71EA72FA738ABF9
:100E800069A17AA18BA19CA1A50194010E94373E82
:100E9000298F3A8F4B8F5C8F6B017C0169A17AA1FE
:100EA0008BA19CA1A50194010E94373ECA01B90102
:100EB0002DA53EA54FA558A90E94183EDC01CB01E7
:100EC0007601DD24CC240D8D1E8D2F8D38A1A90136
:100ED00066277727C42AD52AE62AF72A098D1A8D8C
:100EE0002B8D3C8DC816D906EA06FB0638F5015055
:100EF00010402040304009A31AA32BA33CA3C40CEC
:100F0000D51CE61CF71CC414D504E604F704D0F085
:100F1000C816D906EA06FB06A8F4098D1A8D2B8D92
:100F20003C8D025010402040304009A31AA32BA34F
:100F30003CA3C40CD51CE61CF71C04C009A31AA3CF
:100F40002BA33CA3C81AD90AEA0AFB0AC701B601B7
:100F5000A50194010E94373E298F3A8F4B8F5C8FF9
:100F600069AB7AAB8BAB9CABC701B601A501940111
:100F70000E94373ECA01B9012DA53EA54FA558A92B
:100F80000E94183E4B015C0149A95AA96BA97CA992
:100F90009A01112700278D8D9E8DAF8DB8A1A0706D
:100FA000B070082B192B2A2B3B2B898D9A8DAB8D7A
:100FB000BC8D081519052A053B05E0F40197A10928
:100FC000B109040D151D261D371D0415150526052F
:100FD000370580F0081519052A053B0558F4898D59
:100FE0009A8DAB8DBC8D0297A109B109040D151D19
:100FF000261D371DB901A801481959096A097B093D
:101000004D8F5E8F6F8F78A309A11AA12BA13CA1F0
:101010007801DD24CC24C82AD92AEA2AFB2AFFEF4A
:101020008F2EFFEF9F2EA12CB12C8C209D20AE2067
:10103000BF20870122273327098F1A8F2B8F3C8FE0
:1010400049A45AA46BA47CA42FEF3FEF40E050E0EA
:10105000422253226422752229A53AA54BA55CA5FC
:101060008A012227332709A31AA32BA33CA3C50176
:10107000B401A30192010E94183E69A77AA78BA729
:101080009CA7C501B40129A13AA14BA15CA10E9472
:10109000183E4B015C01698D7A8D8B8D9C8DA3016F
:1010A00092010E94183E2B013C01698D7A8D8B8D37
:1010B0009C8D29A13AA14BA15CA10E94183EAB01D5
:1010C000BC01840C951CA61CB71C09A51AA52BA550
:1010D0003CA5C901AA27BB27880E991EAA1EBB1EC4
:1010E00084149504A604B70420F4405050406F4F78
:1010F0007F4FC501AA27BB27840F951FA61FB71FC7
:101100000D8D1E8D2F8D38A1081719072A073B0753
:1011100018F180179107A207B307A1F5540199248C
:10112000882489A59AA5ABA5BCA5A070B070880E2F
:10113000991EAA1EBB1E4DA15EA16FA178A5032C0E
:1011400004C0440F551F661F771F0A94D2F7481535
:1011500059056A057B05B0F40894C108D108E10877
:10116000F10810C0442455243201CC24DD2476013A
:101170000CC044245524320181E0C82ED12CE12C2E
:10118000F12C03C0442455243201FE01319688E03D
:10119000DF011D928A95E9F7C982DA82EB82FC822F
:1011A0004D825E826F8278862C2D3A814B815C81E4
:1011B000642D7E818F819885E496E1E10C94763EE2
:1011C0009230F9F09330A1F0913049F080E090E056
:1011D000E0E0F0E0DA011196FC93EE93089582E1ED
:1011E00090E0E4E5F1E0DA011196FC93EE930895C6
:1011F000813081F0813098F4E0E3F1E0849190E077
:10120000E9CF80E290E0E4E3F1E0DA011196FC93AB
:10121000EE930895E0E2F1E0849190E0DBCF82303C
:1012200039F0833099F6E4EDF0E0849190E0D2CF8C
:10123000EEEDF0E0849190E0CDCF2091F30230917B
:10124000F4022617370758F06115710509F069C0D7
:101250002091E8002E772093E80020E030E060E065
:101260002115310541F5662309F44FC04091EC0288
:10127000442309F458C0453009F457C04091E800B0
:1012800043FD55C04091E80042FD3FC04091E80059
:1012900040FFECCF4091F2005091F30061E0483004
:1012A000510509F060E04091E8004E774093E80076
:1012B00021153105C1F24091EC024423A1F14530E2
:1012C000A1F14091E80043FD32C04091E80042FDA9
:1012D0001CC04091E80040FFEECF4091F2005091D9
:1012E000F30048305105D0F6FC0103C048305105E9
:1012F000A9F281918093F100CF01215030404F5FDE
:101300005F4F2115310591F7C9CF8091E80082FD2B
:1013100010C08091EC02882331F08530B1F783E072
:1013200008959B019CCF82E0089583E0089581E0B9
:10133000089580E008952091F3023091F402261779
:10134000370758F06115710509F068C02091E80071
:101350002E772093E80020E030E0FC0140E02115EA
:10136000310541F5442309F44DC08091EC028823F6
:1013700009F456C0853009F455C08091E80083FD1A
:1013800053C08091E80082FD3DC08091E80080FF5D
:10139000ECCF8091F2009091F30041E0883091050C
:1013A00009F040E08091E8008E778093E8002115F5
:1013B0003105C1F28091EC02882391F1853091F1E1
:1013C0008091E80083FD30C08091E80082FD1AC062
:1013D0008091E80080FFEECF8091F2009091F300C1
:1013E0008830910520F0D9CF88309105B1F2449131
:1013F0004093F1003196215030400196211531057E
:1014000099F7CBCF8091E80082FD10C08091EC026B
:10141000882331F08530B1F783E008959B019DCF9B
:1014200082E0089583E0089581E0089580E00895C2
:10143000873098F58093E900982F242F762F50E07D
:1014400021FF19C03091EB003E7F3093EB003091CB
:10145000ED003D7F3093ED003091EB003160309333
:10146000EB007093EC002093ED005093F00020917E
:10147000EE0027FF1BC09F5F973079F09093E90043
:10148000891781F07091EC002091ED005091F000EF
:1014900021FDD8CF9F5F973089F78F708093E90047
:1014A00081E00895242F762F50E0CACF80E0089580
:1014B0008091ED0287FD09C08091E80080FD0EC09B
:1014C0008091EC028823C1F708958091E80082FDA5
:1014D0000BC08091EC028823C1F708958091E80049
:1014E0008E778093E80008958091E8008B77809351
:1014F000E80008950F931F93CF93DF930E94CD0AC6
:101500000E94D50AC8EDD0E088818F7788838881D2
:101510008068888388818F7D8883E7EDF0E0808113
:101520008068808319BC1092EC021092E80210923D
:10153000EA021092E90200EE10E0F80180818B7F50
:10154000808388818160888380E060E042E00E943F
:10155000180AE1EEF0E080818E7F8083E2EEF0E019
:10156000808181608083808188608083F8018081B0
:101570008E7F8083888180618883DF91CF911F91E6
:101580000F910895E7EDF0E080818160808381E034
:101590008093EB020E947A0A0895E8EDF0E08081E2
:1015A0008C7F80831092E20008951092DA001092EE
:1015B000E10008951F920F920FB60F920BB60F9293
:1015C00011242F933F934F935F936F937F938F9348
:1015D0009F93AF93BF93EF93FF938091E10082FFBE
:1015E00004C08091E20082FD93C08091DA0080FF08
:1015F00004C08091D80080FD54C08091E10080FF3C
:1016000004C08091E20080FD8BC08091E10084FFE6
:101610002DC08091E20084FF29C084E189BD86E16C
:1016200089BD09B400FEFDCF8091D8008F7D8093E5
:10163000D8008091E1008F7E8093E1008091E200EC
:101640008F7E8093E2008091E20081608093E200CF
:101650008091E802882309F079C08091E30087FF38
:101660007FC084E08093EC020E944C0D8091E100E9
:1016700083FF04C08091E20083FD29C0FF91EF91B8
:10168000BF91AF919F918F917F916F915F914F919A
:101690003F912F910F900BBE0F900FBE0F901F9098
:1016A00018958091DA008E7F8093DA008091D900BE
:1016B00080FF50C084E189BD86E189BD09B400FE88
:1016C000FDCF81E08093EC020E944C0D96CF80917B
:1016D000E100877F8093E10082E08093EC0210922A
:1016E000E8028091E1008E7F8093E1008091E2002A
:1016F0008E7F8093E2008091E20080618093E2001F
:1017000080E060E042E00E94180A0E944C0DB6CFD3
:101710008091E1008B7F8093E1000E944C0D65CFAA
:101720008091E2008E7F8093E2008091E2008061F0
:101730008093E2008091D80080628093D80019BC29
:1017400085E08093EC020E944C0D5FCF84E0809393
:10175000EC028ACF19BC1092EC020E944C0D4DCFC6
:1017600081E080CF0F931F93CF93DF93CDB7DEB788
:10177000AC970FB6F894DEBF0FBECDBF8091F100DD
:101780008093ED028091F1008093EE028091F10050
:101790008093EF028091F1008093F0028091F1003C
:1017A0008093F1028091F1008093F2028091F10028
:1017B0008093F3028091F1008093F4020E944C0D1B
:1017C0008091E80083FF12C09091ED028091EE02BB
:1017D000853009F462C0863010F1883009F4F5C014
:1017E000893009F4D6C0863009F47BC08091E800C6
:1017F00083FF0AC08091EB0080628093EB008091B0
:10180000E800877F8093E800AC960FB6F894DEBFBF
:101810000FBECDBFDF91CF911F910F910895813001
:1018200029F0813008F492C0833001F7992309F43C
:10183000E0C09230D9F68091EF02882321F5209103
:10184000F1022F7099F22093E9008091EB0080FF64
:101850001AC08091EE02833009F418C18091EB0028
:1018600080618093EB0081E090E002C0880F991FB7
:101870002A95E2F78093EA001092EA008091EB004B
:1018800088608093EB001092E9008091E800877FE8
:101890008093E8000E94580AA9CF992309F0A6CFA7
:1018A0001091EF021F770FB7F8948091E800877FBF
:1018B0008093E8000E94580A8091E80080FFFCCFE6
:1018C0008091E3008078812B8093E300806880938F
:1018D000E300112309F4A2C083E08093EC020FBF60
:1018E00085CF9058923008F081CF8091EF0290918F
:1018F000F00223E08C3D920709F0A4C083E08C83C2
:101900008AE28B836FB7F894DE01159680E090E051
:101910004EE051E20AC030E0295C3F4F2D933D93E9
:1019200001968431910509F47BC0E42FF0E05093D7
:101930005700249180FF03C022952F704F5F2F70B6
:101940002A3048F730E0205D3F4FE8CF903809F467
:101950005CC0923809F04ACF8091F1028F70809379
:10196000E9008091EB0091E085FF90E01092E900A2
:101970008091E800877F8093E8009093F1001092B7
:10198000F1008091E8008E778093E8000E94580A69
:101990002DCF992309F02ACF8091EF02823008F0F1
:1019A00025CF9091E800977F9093E8008093E8021C
:1019B0000E94580A8091E802882309F45DC084E0FF
:1019C0008093EC020E940D3E11CF903809F00ECFAB
:1019D0008091E800877F8093E8008091E8028093FF
:1019E000F1008091E8008E778093E8000E94580A09
:1019F000FDCE9091EF02913009F0F8CE91E0833066
:101A000009F090E09093EA023ECF9091E902809134
:101A1000EA02882309F4ACCF9260AACF82E05DCFBE
:101A20006FBF8091E800877F8093E800CE01039626
:101A30006AE270E00E941D098091E8008B77809334
:101A4000E800D4CE6091F102AE014F5F5F4F0E947B
:101A5000E008BC01009709F4C9CE8091E800877FB7
:101A60008093E80089819A810E949B098091E80017
:101A70008B778093E800BACE8091E30087FF04C0A3
:101A800084E08093EC029ECF81E0FBCF8091EB005D
:101A900080628093EB00F7CE0895CF938091EC02A3
:101AA000882391F08091E9008F709091EC0090FD77
:101AB0000DC0C0E0C82B1092E9008091E80083FDC2
:101AC0000DC0CF70C093E900CF910895C0E8C82B36
:101AD0001092E9008091E80083FFF3CF0E94B20BDF
:101AE000F0CF2F923F924F925F926F927F928F92A0
:101AF0009F92AF92BF92CF92DF92EF92FF920F939D
:101B00001F93CF93DF93CDB7DEB763970FB6F894EB
:101B1000DEBF0FBECDBF2C01D62ECE2CBF2C902EFB
:101B2000A12E822E332E242E5F8728A539A54AA503
:101B30005BA56CA57DA5AEA5BFA585E0D81609F46B
:101B4000B8C48D1508F0C5C087E0D81609F43BC3AA
:101B5000D81608F0B2C1C201815B9F4F9C878B876A
:101B6000FC01008111818FEFF8018083C201855B48
:101B70009F4F9A878987FC010081118185E8F801D0
:101B80008083E1E5EE2EF12CE40CF51CF7010081D9
:101B90001181F8018081F201E65BFF4FFE87ED873E
:101BA0009081892BF8018083F70100811181F80170
:101BB000908187E4682E712C640C751CF301808180
:101BC00080958923F8018083F70100811181F80154
:101BD0008081F3019081892BF8018083F7010081D6
:101BE0001181F8019081ED85FE85808180958923A2
:101BF000F8018083F70100811181F8018081F201F1
:101C0000E75BFF4FF98BE88B9081892BF80180838C
:101C1000EB85FC85808191811FEFFC011083E985B4
:101C2000FA8580819181FC012083F7010190F08188
:101C3000E02DFB8BEA8B9081F301808180958923D5
:101C4000EA89FB898083F7010190F081E02DFB8B0D
:101C5000EA8B8081F3019081892BEA89FB8980835B
:101C6000CD0108E00E94A701AB85BC85ED91FC91F8
:101C70001083A985BA85ED91FC912083D701ED9160
:101C8000FC919081D3018C91809589238083D70129
:101C9000ED91FC918081D3019C91892B8083B1E0EF
:101CA000DB1609F449C1E5E0DE1609F445C1D701A8
:101CB000ED91FC918081A889B9899C919095982398
:101CC0009083B2E0DB1609F4D6C500E010E098017D
:101CD00000C192E0D91609F4D5C39D1508F014C1CE
:101CE000F3E0DF1609F451C324E0D21609F0EDC089
:101CF000F201E15BFF4F0190F081E02D8FEF8083D7
:101D0000F201E55BFF4F0190F081E02D8083D2016D
:101D1000AF5ABF4F4D915C911197FA0180819201AA
:101D2000265B3F4FF9019081892BFA0180836D91E9
:101D30007C911197FB015081C201895B9F4FFC018F
:101D4000408140954523FB0140836D917C91119723
:101D5000FB014081FC018081482BFB014083ED9118
:101D6000FC919081D9018C9180958923808319827F
:101D70001A8280E28B831C821D821E821F8218863B
:101D800089817A816B815C814D813E812F8198852B
:101D9000872B862B852B842B832B822B892B09F475
:101DA00087C0F201ED5AFF4F0190F081E02DD20182
:101DB000AB5BBF4F1C918081812329F086CF80814E
:101DC000812309F082CF89812A817B816C815D81A9
:101DD0003E814F810885B82FB150A1E0B81708F0B7
:101DE000A0E0922F915081E0921708F080E0A90FB7
:101DF00021E0A91708F020E0822B272F215091E045
:101E0000271708F090E0782F720F81E0721708F022
:101E100080E0982B262F215081E0261708F080E0E3
:101E2000692F620F91E0621708F090E0892B252F4F
:101E3000215091E0251708F090E0582F520F81E0D3
:101E4000521708F080E0982B232F215081E02317B0
:101E500008F080E0920F31E0921708F030E0832B19
:101E6000342F315021E0341708F020E0482F430F81
:101E700081E0431708F080E0282B0150200FB98340
:101E8000AA837B836C835D839E834F8328878981AC
:101E90007A816B815C814D813E812F819885872B72
:101EA000862B852B842B832B822B892B09F087CFC4
:101EB0000CEF1FEF2FEF3FEF0CC098E0D91609F49D
:101EC00046C3A9E0DA1609F409C30DEF1FEF2FEF9F
:101ED0003FEFB801C90163960FB6F894DEBF0FBE9D
:101EE000CDBFDF91CF911F910F91FF90EF90DF90C9
:101EF000CF90BF90AF909F908F907F906F905F90AA
:101F00004F903F902F900895E1E0DE16F1F6F20138
:101F1000E15BFF4FFC87EB87008111818FEFF801B8
:101F20008083C201855B9F4F9A878987FC018081EE
:101F30009181FC01108225CEAB85BC85ED91FC9191
:101F40001FEF1083A985BA85ED91FC91C082D7015E
:101F5000ED91FC919081D3018C91809589238083B0
:101F6000D701ED91FC918081D3019C91892B8083D5
:101F70002C2D3B2D492D5A2D682D732D822D9F859B
:101F800008E00E94A701AB85BC85ED91FC91108310
:101F9000A985BA85ED91FC912083D701ED91FC9143
:101FA0009081D3018C91809589238083D701ED9115
:101FB000FC918081D3019C91892B80832C2D3B2D1A
:101FC000492D5A2D682D732D822D9F8500E10E9489
:101FD000A701AB85BC85ED91FC911083A985BA85DD
:101FE000ED91FC912083D701ED91FC919081D3017B
:101FF0008C91809589238083D701ED91FC9180811C
:10200000D3019C91892B8083D701ED91FC91808134
:10201000A889B9899C91909598239083B1E0DB16AB
:1020200009F04FCEAB85BC85ED91FC911083A9855D
:10203000BA85ED91FC9180E38083D701ED91FC910D
:102040008081AD85BE859C91892B8083D701ED91E0
:10205000FC919081D3018C91809589238083D70155
:10206000ED91FC918081D3019C91892B8083D701D4
:10207000ED91FC919081AD85BE858C9180958923F1
:10208000808319821A8280E28B831C821D821E82C9
:102090001F82188689817A816B815C814D813E81A6
:1020A0002F819885872B862B852B842B832B822B46
:1020B000892B09F4FDCEF201ED5AFF4F0190F0811A
:1020C000E02DD201AB5BBF4F1C918081812329F0B1
:1020D000FCCD8081812309F0F8CD89812A817B8123
:1020E0006C815D813E814F810885B82FB150A1E0A0
:1020F000B81708F0A0E0922F915081E0921708F0F5
:1021000080E0A90F21E0A91708F020E0822B272FFB
:10211000215091E0271708F090E0782F720F81E0AE
:10212000721708F080E0982B262F215081E02617A7
:1021300008F080E0692F620F91E0621708F090E0EC
:10214000892B252F215091E0251708F090E0582F7A
:10215000520F81E0521708F080E0982B232F215076
:1021600081E0231708F080E0920F31E0921708F029
:1021700030E0832B342F315021E0341708F020E079
:10218000482F430F81E0431708F080E0282B0150CF
:10219000200FB983AA837B836C835D839E834F83E7
:1021A000288789817A816B815C814D813E812F8175
:1021B0009885872B862B852B842B832B822B892B31
:1021C00009F087CF75CEF201E15BFF4F0190F081FE
:1021D000E02D8FEF8083F201E55BFF4F0190F081EE
:1021E000E02D80E18083D201AF5ABF4F4D915C91C9
:1021F0001197FA0180819201265B3F4FF90190818E
:10220000892BFA0180836D917C911197FB0150819C
:10221000C201895B9F4FFC01408140954523FB0132
:1022200040836D917C911197FB014081FC0180817D
:10223000482BFB014083ED91FC919081D9018C9159
:1022400080958923808319821A8280E28B831C8285
:102250001D821E821F82188689817A816B815C8132
:102260004D813E812F819885872B862B852B842B52
:10227000832B822B892B09F41BCEF201ED5AFF4FE1
:102280000190F081E02DD201AB5BBF4F1C918081AA
:10229000812329F01ACD8081812309F016CD89810F
:1022A0002A817B816C815D813E814F810885B82FB9
:1022B000B150A1E0B81708F0A0E0922F915081E052
:1022C000921708F080E0A90F21E0A91708F020E09C
:1022D000822B272F215091E0271708F090E0782FCC
:1022E000720F81E0721708F080E0982B262F2150A2
:1022F00081E0261708F080E0692F620F91E06217F5
:1023000008F090E0892B252F215091E0251708F047
:1023100090E0582F520F81E0521708F080E0982B80
:10232000232F215081E0231708F080E0920F31E045
:10233000921708F030E0832B342F315021E034170E
:1023400008F020E0482F430F81E0431708F080E0B9
:10235000282B0150200FB983AA837B836C835D8374
:102360009E834F83288789817A816B815C814D812F
:102370003E812F819885872B862B852B842B832B61
:10238000822B892B09F087CF93CD8201015B1F4FF0
:10239000D801ED91FC914FEF40839BE4E92EF12CA5
:1023A000E40CF51CD701ED91FC9180E98083D2010A
:1023B000AF5ABF4F6D917C911197FB0180819201C3
:1023C000265B3F4FF9019081892BFB018083CD90E3
:1023D000DC901197F6016081C201895B9F4FFC017F
:1023E000508150955623F6015083CD90DC90119783
:1023F000F6015081FC016081562BF60150836D91EE
:102400007C911197FB015081F901208120952523B2
:10241000FB012083CD90DC901197F6015081920151
:10242000275B3F4FF9016081562BF6015083F8017D
:1024300060817181FB014083F70140815181FA0184
:1024400010826D917C911197FB015081FC014081BC
:1024500040954523FB0140836D917C911197FB01D1
:102460004081FC018081482BFB014083ED91FC9170
:102470009081D9018C9180958923808300E010E0C0
:10248000980127CDC201815B9F4F9C878B87FC0100
:10249000008111818FEFF8018083C201855B9F4F1E
:1024A0009A878987FC010081118185E0F80180838A
:1024B00068CBC201815B9F4F9C878B87FC010081A9
:1024C00011818FEFF8018083C201855B9F4F9A874E
:1024D0008987FC010081118180E851CBF201E15B29
:1024E000FF4F0190F081E02D8FEF8083F201E55BDB
:1024F000FF4F0190F081E02D80E78083F201EF5AD9
:10250000FF4F40815181DA018C919201265B3F4F50
:10251000D9019C91892BDA018C9360817181DB0157
:102520005C91C201895B9F4FDC014C914095452332
:10253000DB014C9360817181DB014C91DC018C915A
:10254000482BDB014C930190F081E02D91CFF201FB
:10255000E15BFF4FFA87E9870190F081E02D1FEFE3
:1025600010839201255B3F4F3C872B87D901ED916A
:10257000FC9180E6808381E5E82EF12CE40CF51CCB
:10258000D701ED91FC9180819201265B3F4F3E8700
:102590002D87D9019C91892B8083D701ED91FC91E6
:1025A000908147E4642E712C640C751CD3018C91CE
:1025B000809589238083D701ED91FC918081D3019F
:1025C0009C91892B8083D701ED91FC919081D90159
:1025D0008C91809589238083D701ED91FC91808136
:1025E0009201275B3F4F398B288BD9019C91892B16
:1025F0008083A985BA85ED91FC911083AB85BC855C
:10260000ED91FC91C082D701ED91FC919081D301B5
:102610008C91809589238083D701ED91FC918081F5
:10262000D3019C91892B80832C2D3B2D402F5A2D3B
:10263000682D732D822D9F8508E00E94A701A98532
:10264000BA85ED91FC911083AB85BC85ED91FC9131
:102650002083D701ED91FC919081D3018C918095DD
:1026600089238083D701ED91FC918081D3019C91D6
:10267000892B80832C2D3B2D492D5A2D682D732DB0
:10268000822D9F8500E10E94A701A985BA85ED9161
:10269000FC911083AB85BC85ED91FC912083D70123
:1026A000ED91FC919081D3018C9180958923808359
:1026B000D701ED91FC918081D3019C91892B80837E
:1026C000D701ED91FC918081A889B9899C91909561
:1026D00098239083A985BA85ED91FC911083AB85F1
:1026E000BC85ED91FC9180ED8083D701ED91FC914B
:1026F0008081AD85BE859C91892B8083D701ED912A
:10270000FC919081D3018C91809589238083D7019E
:10271000ED91FC918081D3019C91892B8083D7011D
:10272000ED91FC919081AD85BE858C91809589233A
:10273000808319821A8280E28B831C821D821E8212
:102740001F82188689817A816B815C814D813E81EF
:102750002F819885872B862B852B842B832B822B8F
:10276000892B09F4A5CBF201ED5AFF4F0190F081BE
:10277000E02DD201AB5BBF4F1C918081812329F0FA
:10278000A4CA8081812309F0A0CA89812A817B8122
:102790006C815D813E814F810885B82FB150A1E0E9
:1027A000B81708F0A0E0922F915081E0921708F03E
:1027B00080E0A90F21E0A91708F020E0822B272F45
:1027C000215091E0271708F090E0782F720F81E0F8
:1027D000721708F080E0982B262F215081E02617F1
:1027E00008F080E0692F620F91E0621708F090E036
:1027F000892B252F215091E0251708F090E0582FC4
:10280000520F81E0521708F080E0982B232F2150BF
:1028100081E0231708F080E0920F31E0921708F072
:1028200030E0832B342F315021E0341708F020E0C2
:10283000482F430F81E0431708F080E0282B015018
:10284000200FB983AA837B836C835D839E834F8330
:10285000288789817A816B815C814D813E812F81BE
:102860009885872B862B852B842B832B822B892B7A
:1028700009F087CF1DCBAB85BC85ED91FC918FEF27
:102880008083A985BA85ED91FC91119780EED4CB18
:102890002F923F924F925F926F927F928F929F9270
:1028A000AF92BF92CF92DF92EF92FF920F931F935E
:1028B000CF93DF93CDB7DEB72C970FB6F894DEBF7A
:1028C0000FBECDBF9A838983AC014B5A5F4FDA01AB
:1028D0002D913C91F9018081A981BA81AC5BBF4FF8
:1028E0009C91892B808329803A8071E5E72EF12C19
:1028F0002E0C3F1CF10120813181F90190818C91D6
:10290000809589238083DA012D913C91F901908192
:10291000A981BA81AB5BBF4F8C918095892380835D
:10292000F10120813181F90180819C91892B808383
:10293000DA01ED91FC918081C980DA8016E4E12E04
:10294000F12CCE0CDF1CD6019C91892B8083D10108
:10295000ED91FC918081D6019C91892B8083FA01B5
:1029600020813181D9018C91A981BA81A95BBF4FA6
:102970009C91892BF9018083F10120813181F9013A
:1029800080819C91892B8083DA012D913C91F90102
:102990008081A981BA81A85BBF4F9C91892B8083DC
:1029A000F10120813181F90180819C91892B808303
:1029B000DA012D913C91F9018081A981BA81A75B4F
:1029C000BF4F9C91892B8083F10120813181F901D6
:1029D00090818C91809589238083DA012D913C919F
:1029E000F9018081A981BA81A65BBF4F9C91892B97
:1029F0008083F10120813181F90190818C91809552
:102A0000892380830DB71EB7085010400FB6F89485
:102A10001EBF0FBE0DBFEDB7FEB73196ADB7BEB747
:102A200011961C92118212821382148215821682D0
:102A3000178289819A8164E0EE24FF2400E010E08F
:102A400020E030E040E050E00E94710DDC01CB015D
:102A5000EDB7FEB738960FB6F894FEBF0FBEEDBFC8
:102A60000097A105B105F9F00EEF1FEF2FEF3FEF33
:102A7000B801C9012C960FB6F894DEBF0FBECDBFCA
:102A8000DF91CF911F910F91FF90EF90DF90CF904A
:102A9000BF90AF909F908F907F906F905F904F907E
:102AA0003F902F900895EDB7FEB738970FB6F89482
:102AB000FEBF0FBEEDBF3196ADB7BEB711961C92EB
:102AC00011821282138214821582168217828981E2
:102AD0009A8163E0EE24FF2400E010E020E030E083
:102AE00040E050E00E94710DE981FA81E15BFF4F07
:102AF0000190F081E02D80811082E981FA81E55B0F
:102B0000FF4F0190F081E02D80818FEF8083D10114
:102B1000ED91FC919081D6018C91809589238083E1
:102B20000000A981BA81A35BBF4FED91FC91119781
:102B30002081F10140815181FA018081F60190816B
:102B4000892BFA018083F10140815181FA01908142
:102B5000F601808180958923FA0180830000ED9140
:102B6000FC9111979081F10140815181FA0180819E
:102B7000F6013081832BFA018083F101408151817C
:102B8000FA013081F601808180958323FA018083E8
:102B90000000ED91FC9111978081F10140815181FC
:102BA000FA018081F6013081832BFA018083F101E3
:102BB00040815181FA013081F60180818095832323
:102BC000FA0180830000ED91FC9111978081F10161
:102BD00060817181FB013081F6014081342BFB0162
:102BE0003083F10160817181FB014081F601308108
:102BF00030953423FB0130830000ED91FC9100817E
:102C00000093E202D101ED91FC913081D6014C910B
:102C1000342B3083E981FA8122839383E82EFF24C9
:102C2000FC86EB8697012370307080E094E002C050
:102C3000880F991F2A95E2F79C01442737FD40959C
:102C4000542F2B833C834D835E83248335834683BB
:102C50005783DA01C901A070B070EDB7FEB738969E
:102C60000FB6F894FEBF0FBEEDBF0097A105B105EA
:102C700009F484C0BA01A901E0E028E0CA014423B4
:102C800011F4892FE22F482F90E09C012F703070B3
:102C90002115310509F477C062E050E09C012370F2
:102CA00030702115310521F446954695842F562F15
:102CB00080FF5F5FE50F8E2F90E0A0E0B0E0E9813C
:102CC000FA8180879187A287B3878B859C858073E3
:102CD00090709595879595958795959587959595F8
:102CE000879520E030E041E050E004C0220F331F20
:102CF000441F551F8A95D2F72F83388749875A87F3
:102D0000208B318B428B538B202F26952695237059
:102D100081E090E002C0880F991F2A95E2F7A82E63
:102D200080A3802F82958770843009F4ACC18530F0
:102D300088F5823009F49AC1833008F024C18130CB
:102D400091F5A981BA8191961C92919792961C92C5
:102D5000929793961C92939794968C9394979596AA
:102D60001C92959796961C92969797961C92979779
:102D700098961C92989740E051E022C066277727EA
:102D8000E0E128E17BCF42954F70842F90E066E030
:102D900054E084CF863009F45BC1863008F4D5C096
:102DA000873009F437C1E981FA8111A212A280E8C3
:102DB00083A314A215A216A217A210A640E850E001
:102DC000BB85B6FD04C188E090E0A0E0B0E0E981F9
:102DD000FA81848F958FA68FB78F20E030E060E076
:102DE00070E080E090E0BB24CC24DD24EE24FF24BE
:102DF00000E010E00E94D400EF80F88409851A8575
:102E00001701280157016201EE24FF2400E010E0C1
:102E10000E949B02A981BA8158962C935897599683
:102E20003C9359975A964C935A975B965C936F8153
:102E3000788589859A852B813C814D815E810E94B0
:102E4000373E89019A01E981FA810487158726872F
:102E50003787D901C801A070B0700097A105B105EE
:102E600009F0B2C089012227332750E198E1402FB1
:102E7000002311F4412F592F842F90E09C012F70D3
:102E800030702115310509F09CC042954F70842F98
:102E900090E076E064E09C012370307021153105EC
:102EA00021F446954695842F672F80FF6F5F560F5C
:102EB000852F90E0A0E0B0E0E981FA81848B958BCA
:102EC000A68BB78B0B811C812D813E81003042E0A7
:102ED000140740E0240740E0340708F483C011A63B
:102EE000CB80DC80ED80FE8029E0F694E794D794D7
:102EF000C7942A95D1F78B859C85847090709595A1
:102F000087959595879528E030E002C0220F331F02
:102F10008A95E2F7442737FD4095542FC701B60143
:102F20000E94183EDC01CB0180319105A105B1055D
:102F300009F45BC080349105A105B10509F45FC0B7
:102F40000DEF1FEF2FEF3FEF93CDA981BA8191963F
:102F50001C92919792961C92929793961C9293979B
:102F600080E194968C93949795961C92959796965B
:102F70001C92969797961C92979798961C92989762
:102F800040E050E11DCFA981BA8191961C929197A2
:102F900092961C92929793961C92939784E09496A3
:102FA0008C93949795961C92959796961C929697CB
:102FB00097961C92979798961C92989740E054E0A9
:102FC000FFCE72E060E067CF50E098E050CF80E144
:102FD00090E0A0E0B0E0E981FA81848F958FA68F20
:102FE000B78FFBCE85E081A77BCF80E091E0E981C0
:102FF000FA819183808300E010E0980139CD8AE165
:1030000091E0A981BA8111969C938E9300E010E023
:1030100098012ECDA981BA8191961C929197929692
:103020001C92929793961C92939780E494968C931B
:10303000949795961C92959796961C92969797962C
:103040001C92979798961C92989740E050E4B8CEBF
:10305000E981FA8111A212A213A280E284A315A22F
:1030600016A217A210A640E050E2AACEE981FA818A
:1030700011A212A213A284A315A216A217A210A62F
:1030800040E052E09DCE11A212A213A288E084A3D8
:1030900015A216A217A210A640E058E091CE2F92DA
:1030A0003F924F925F926F927F928F929F92AF92D8
:1030B000BF92CF92DF92EF92FF920F931F93CF9325
:1030C000DF93CDB7DEB768970FB6F894DEBF0FBEBB
:1030D000CDBF9A83898309872A873B874C875D8781
:1030E0006E877F87DC01ED91FC91119780811496AA
:1030F0002D903C901597280E311C81E08093E900BB
:10310000E981FA8184859585A685B7850097A10513
:10311000B10509F4C0C0CF016F015F014F01442424
:10312000552432011E821D82E15BFF4FFB8BEA8B2F
:10313000855B9F4F998B888BA1E5B0E0CA0EDB1EA3
:10314000E6E4F0E0AE0EBF1E8DE490E0880E991E1E
:1031500038862F82188FDD8ACC8A15019F8A8E8A45
:10316000ADB7BEB718970FB6F894BEBF0FBEADBFD0
:10317000EDB7FEB73196FC83EB832985388D4A8500
:103180005B856C857D858E859F85A981BA815496E6
:103190000C910E94210249015A01840C951CA61C25
:1031A000B71C24013501EB81FC811082118212824F
:1031B0001382148215821682178289819A8161E0B6
:1031C0007401830120E030E040E050E00E94710D86
:1031D0006B017C01AA89BB89ED91FC9180811082F1
:1031E000A889B989ED91FC918081BFEFB083EDB7DB
:1031F000FEB738960FB6F894FEBF0FBEEDBF8F81B5
:1032000098850097A1F14C0100E010E026013701FC
:103210005801288D0C891D89CE88DF888091E800AF
:1032200080FD08C0F22E0E944D0D8091E80080FFC5
:10323000FACF2F2D80E4FCEF4F16FFEF5F06FFEF74
:103240006F06FFEF7F0609F042C091E09093F10016
:103250008150D9F78091E8008E778093E800A0E450
:10326000B0E0AA0EBB1EA814B904C0F2288FED81ED
:10327000FE813196FE83ED832F0166247724E98158
:10328000FA8184859585A685B785481659066A060C
:103290007B0608F465CF60E070E0CB0168960FB65E
:1032A000F894DEBF0FBECDBFDF91CF911F910F917C
:1032B000FF90EF90DF90CF90BF90AF909F908F9056
:1032C0007F906F905F904F903F902F900895422F86
:1032D000D801ED91FC912081D1019C919095922390
:1032E00090830000D601ED91FC9120812093E202B1
:1032F000D801ED91FC919081D1013C91932B908369
:103300002093F100815021F7242FA4CF0E9448146C
:1033100008950F931F930E944F181F910F910895C6
:1033200017B81AB818B81BB87198000026B1909158
:10333000F602E92FF0E0E950FD4F2083E92FEF5F1F
:10334000E093F60229B1F0E0E950FD4F20839E5F43
:103350009093F602882309F414C11092F60281E0DA
:103360008093E9008091E80080FD06C00E944D0D29
:103370008091E80080FFFACF8091F7028093F100FE
:103380008091F8028093F1008091F9028093F1001E
:103390008091FA028093F1008091FB028093F1000A
:1033A0008091FC028093F1008091FD028093F100F6
:1033B0008091FE028093F1008091FF028093F100E2
:1033C000809100038093F100809101038093F100CC
:1033D000809102038093F100809103038093F100B8
:1033E000809104038093F100809105038093F100A4
:1033F000809106038093F100809107038093F10090
:10340000809108038093F100809109038093F1007B
:1034100080910A038093F10080910B038093F10067
:1034200080910C038093F10080910D038093F10053
:1034300080910E038093F10080910F038093F1003F
:10344000809110038093F100809111038093F1002B
:10345000809112038093F100809113038093F10017
:10346000809114038093F100809115038093F10003
:10347000809116038093F100809117038093F100EF
:10348000809118038093F100809119038093F100DB
:1034900080911A038093F10080911B038093F100C7
:1034A00080911C038093F10080911D038093F100B3
:1034B00080911E038093F10080911F038093F1009F
:1034C000809120038093F100809121038093F1008B
:1034D000809122038093F100809123038093F10077
:1034E000809124038093F100809125038093F10063
:1034F000809126038093F100809127038093F1004F
:10350000809128038093F100809129038093F1003A
:1035100080912A038093F10080912B038093F10026
:1035200080912C038093F10080912D038093F10012
:1035300080912E038093F10080912F038093F100FE
:10354000809130038093F100809131038093F100EA
:10355000809132038093F100809133038093F100D6
:10356000809134038093F100809135038093F100C2
:10357000809136038093F1008091E8008E778093EC
:10358000E800719A8FEF87B98AB908958FEF87B9EC
:103590008AB984B981B980BB15B812B811BA8DB98E
:1035A0006E98769A8EB18E778EB98EB182638EB90F
:1035B0001092E3021092E4021092E5021092E602E9
:1035C00008951DB817B81AB814B811B810BA8FEF0B
:1035D0008EB988B98BB985B982B981BB08958093BA
:1035E000E4026093E5024093E60285B962B941BB0B
:1035F00008958093E70208958093E30208959091DF
:10360000E6029F5F9093E602992339F42091E50248
:103610002F5F2093E502222351F0882339F0809117
:10362000E40285B98091E50282B991BB08952091A9
:10363000E4022F5F2093E402F0CF7498C895C895F8
:1036400000C0749AC895C89500C00895719A709882
:1036500015B895E092B985E581BB18B82AEA2BB96F
:1036600000007598759A15B832E032B921BB18B8C8
:103670008BB900007598759A15B892B981BB18B8C6
:1036800080E98BB900007598759A15B812B811BA0F
:1036900080E00E94901915B812B881E081BB80E0EB
:1036A0000E94901915B812B88EE081BB80E00E948C
:1036B000901915B812B88FE081BB81E00E94901973
:1036C0007498C895C89500C0749AC895C89500C0EC
:1036D0000895719A70989091E30295B935E032B9E6
:1036E00085E581BB18B82AEA2BB900007598759A50
:1036F00095B942E042B921BB18B88BB90000759862
:10370000759A95B932B981BB18B850E85BB9000019
:103710007598759A95B932B981BB18B82BB9000064
:103720007598759A95B942B921BB18B88BB9000044
:103730007598759A2091E4029091E5028091E602D5
:1037400025B992B981BB18B880E38BB90000759890
:10375000759A00C0669BFECF0895719A70989091FB
:10376000E30295B925E022B985E581BB18B83AEAAC
:103770003BB900007598759A95B942E042B931BBE2
:1037800018B88BB900007598759A95B922B981BBA4
:1037900018B850E85BB900007598759A95B922B9C8
:1037A00081BB18B83BB900007598759A95B942B9B4
:1037B00031BB18B88BB900007598759A95B922B9C4
:1037C00081BB18B880E18BB900007598759A00C06C
:1037D000669BFECF7498C895C89500C0749AC8952A
:1037E000C89500C008958F929F92AF92BF92CF92DA
:1037F000DF92EF92FF92DC01CB0117B81AB818B82C
:103800001BB882309105A105B10509F45DC021E026
:103810002093E9004C015D01B694A7949794879496
:1038200081149104A104B10409F442C0CC24DD2424
:1038300076018091E80080FD06C00E944D0D8091C8
:10384000E80080FFFACF90E28091E6024091E40226
:103850002091E5027198000036B13093F10039B142
:103860003093F100719A8F5F8093E602882341F4D0
:103870002F5F2093E502222319F44F5F4093E40267
:1038800045B922B981BB915029F780E290E0A0E0D0
:10389000B0E0C80ED91EEA1EFB1E8091E8008E77AC
:1038A0008093E800C814D904EA04FB0408F4C1CFEB
:1038B0008FEF87B98AB9FF90EF90DF90CF90BF90DC
:1038C000AF909F908F9008957198000096B180916D
:1038D000F602E82FF0E0E950FD4F9083E82FEF5F0C
:1038E000E093F60299B1F0E0E950FD4F90838E5FCE
:1038F0008093F602442309F414C11092F60281E089
:103900008093E9008091E80080FD06C00E944D0D83
:103910008091E80080FFFACF8091F7028093F10058
:103920008091F8028093F1008091F9028093F10078
:103930008091FA028093F1008091FB028093F10064
:103940008091FC028093F1008091FD028093F10050
:103950008091FE028093F1008091FF028093F1003C
:10396000809100038093F100809101038093F10026
:10397000809102038093F100809103038093F10012
:10398000809104038093F100809105038093F100FE
:10399000809106038093F100809107038093F100EA
:1039A000809108038093F100809109038093F100D6
:1039B00080910A038093F10080910B038093F100C2
:1039C00080910C038093F10080910D038093F100AE
:1039D00080910E038093F10080910F038093F1009A
:1039E000809110038093F100809111038093F10086
:1039F000809112038093F100809113038093F10072
:103A0000809114038093F100809115038093F1005D
:103A1000809116038093F100809117038093F10049
:103A2000809118038093F100809119038093F10035
:103A300080911A038093F10080911B038093F10021
:103A400080911C038093F10080911D038093F1000D
:103A500080911E038093F10080911F038093F100F9
:103A6000809120038093F100809121038093F100E5
:103A7000809122038093F100809123038093F100D1
:103A8000809124038093F100809125038093F100BD
:103A9000809126038093F100809127038093F100A9
:103AA000809128038093F100809129038093F10095
:103AB00080912A038093F10080912B038093F10081
:103AC00080912C038093F10080912D038093F1006D
:103AD00080912E038093F10080912F038093F10059
:103AE000809130038093F100809131038093F10045
:103AF000809132038093F100809133038093F10031
:103B0000809134038093F100809135038093F1001C
:103B1000809136038093F1008091E8008E77809346
:103B2000E800719AC5CE719A8EB18E7D8EB9809162
:103B30007703909178039C01009709F07AC282E0A4
:103B40008093E9008091E80082FD06C00E944D0D3F
:103B50008091E80082FFFACF8091F10080933703D3
:103B60002091F100209338039091F1009093390354
:103B70009091F10090933A039091F10090933B0360
:103B80009091F10090933C039091F10090933D034C
:103B90009091F10090933E039091F10090933F0338
:103BA0009091F100909340039091F1009093410324
:103BB0009091F100909342039091F1009093430310
:103BC0009091F100909344039091F10090934503FC
:103BD0009091F100909346039091F10090934703E8
:103BE0009091F100909348039091F10090934903D4
:103BF0009091F10090934A039091F10090934B03C0
:103C00009091F10090934C039091F10090934D03AB
:103C10009091F10090934E039091F10090934F0397
:103C20009091F100909350039091F1009093510383
:103C30009091F100909352039091F100909353036F
:103C40009091F100909354039091F100909355035B
:103C50009091F100909356039091F1009093570347
:103C60009091F100909358039091F1009093590333
:103C70009091F10090935A039091F10090935B031F
:103C80009091F10090935C039091F10090935D030B
:103C90009091F10090935E039091F10090935F03F7
:103CA0009091F100909360039091F10090936103E3
:103CB0009091F100909362039091F10090936303CF
:103CC0009091F100909364039091F10090936503BB
:103CD0009091F100909366039091F10090936703A7
:103CE0009091F100909368039091F1009093690393
:103CF0009091F10090936A039091F10090936B037F
:103D00009091F10090936C039091F10090936D036A
:103D10009091F10090936E039091F10090936F0356
:103D20009091F100909370039091F1009093710342
:103D30009091F100909372039091F100909373032E
:103D40009091F100909374039091F100909375031A
:103D50009091F100909376039091E8009B77909377
:103D6000E800582F40E030E0242B352B30937803C7
:103D70002093770382E08093F502E2E0211531057C
:103D800009F06DC12FEF809177039091780328B9E6
:103D90009C01009709F039C182E08093E90080918D
:103DA000E80082FD06C00E944D0D8091E80082FF70
:103DB000FACF3091F100309337032091F100209336
:103DC00038038091F100809339038091F100809352
:103DD0003A038091F10080933B038091F10080933E
:103DE0003C038091F10080933D038091F10080932A
:103DF0003E038091F10080933F038091F100809316
:103E000040038091F100809341038091F100809301
:103E100042038091F100809343038091F1008093ED
:103E200044038091F100809345038091F1008093D9
:103E300046038091F100809347038091F1008093C5
:103E400048038091F100809349038091F1008093B1
:103E50004A038091F10080934B038091F10080939D
:103E60004C038091F10080934D038091F100809389
:103E70004E038091F10080934F038091F100809375
:103E800050038091F100809351038091F100809361
:103E900052038091F100809353038091F10080934D
:103EA00054038091F100809355038091F100809339
:103EB00056038091F100809357038091F100809325
:103EC00058038091F100809359038091F100809311
:103ED0005A038091F10080935B038091F1008093FD
:103EE0005C038091F10080935D038091F1008093E9
:103EF0005E038091F10080935F038091F1008093D5
:103F000060038091F100809361038091F1008093C0
:103F100062038091F100809363038091F1008093AC
:103F200064038091F100809365038091F100809398
:103F300066038091F100809367038091F100809384
:103F400068038091F100809369038091F100809370
:103F50006A038091F10080936B038091F10080935C
:103F60006C038091F10080936D038091F100809348
:103F70006E038091F10080936F038091F100809334
:103F800070038091F100809371038091F100809320
:103F900072038091F100809373038091F10080930C
:103FA00074038091F100809375038091F1008093F8
:103FB00076038091E8008B778093E800932F80E070
:103FC00030E0282B392B309378032093770382E05D
:103FD0008093F502E2E021153105E9F48FEF8BB90A
:103FE0000000759A8091E702882371F08091E602C3
:103FF0008F5F8093E602882329F12091E40290915B
:10400000E50225B992B981BB0895E091F502E0344B
:10401000A1F1E03418F72150304030937803209319
:104020007703EF5FE093F502F0E0EA5CFC4F8081FC
:10403000D6CFE091F502E03409F43AC1E03478F0EB
:104040002FEFA5CE9091E5029F5F9093E50220911E
:10405000E4029923B1F62F5F2093E402D2CFC90185
:1040600001979093780380937703EF5FE093F502D5
:10407000F0E0EA5CFC4F20818ACE22E02093E90048
:104080002091E80022FD0AC00E944D0D8091E800B9
:1040900082FFFACF80917703909178032091F1000D
:1040A000209337032091F100209338032091F100F1
:1040B000209339032091F10020933A032091F100DD
:1040C00020933B032091F10020933C032091F100C9
:1040D00020933D032091F10020933E032091F100B5
:1040E00020933F032091F100209340032091F100A1
:1040F000209341032091F100209342032091F1008D
:10410000209343032091F100209344032091F10078
:10411000209345032091F100209346032091F10064
:10412000209347032091F100209348032091F10050
:10413000209349032091F10020934A032091F1003C
:1041400020934B032091F10020934C032091F10028
:1041500020934D032091F10020934E032091F10014
:1041600020934F032091F100209350032091F10000
:10417000209351032091F100209352032091F100EC
:10418000209353032091F100209354032091F100D8
:10419000209355032091F100209356032091F100C4
:1041A000209357032091F100209358032091F100B0
:1041B000209359032091F10020935A032091F1009C
:1041C00020935B032091F10020935C032091F10088
:1041D00020935D032091F10020935E032091F10074
:1041E00020935F032091F100209360032091F10060
:1041F000209361032091F100209362032091F1004C
:10420000209363032091F100209364032091F10037
:10421000209365032091F100209366032091F10023
:10422000209367032091F100209368032091F1000F
:10423000209369032091F10020936A032091F100FB
:1042400020936B032091F10020936C032091F100E7
:1042500020936D032091F10020936E032091F100D3
:1042600020936F032091F100209370032091F100BF
:10427000209371032091F100209372032091F100AB
:10428000209373032091F100209374032091F10097
:10429000209375032091F100209376032091E8008C
:1042A0002B772093E8001092F5029C01E0E093CE7A
:1042B00022E02093E9002091E80022FD0AC00E943C
:1042C0004D0D8091E80082FFFACF809177039091A5
:1042D00078032091F100209337032091F10020937F
:1042E00038032091F100209339032091F1002093AD
:1042F0003A032091F10020933B032091F100209399
:104300003C032091F10020933D032091F100209384
:104310003E032091F10020933F032091F100209370
:1043200040032091F100209341032091F10020935C
:1043300042032091F100209343032091F100209348
:1043400044032091F100209345032091F100209334
:1043500046032091F100209347032091F100209320
:1043600048032091F100209349032091F10020930C
:104370004A032091F10020934B032091F1002093F8
:104380004C032091F10020934D032091F1002093E4
:104390004E032091F10020934F032091F1002093D0
:1043A00050032091F100209351032091F1002093BC
:1043B00052032091F100209353032091F1002093A8
:1043C00054032091F100209355032091F100209394
:1043D00056032091F100209357032091F100209380
:1043E00058032091F100209359032091F10020936C
:1043F0005A032091F10020935B032091F100209358
:104400005C032091F10020935D032091F100209343
:104410005E032091F10020935F032091F10020932F
:1044200060032091F100209361032091F10020931B
:1044300062032091F100209363032091F100209307
:1044400064032091F100209365032091F1002093F3
:1044500066032091F100209367032091F1002093DF
:1044600068032091F100209369032091F1002093CB
:104470006A032091F10020936B032091F1002093B7
:104480006C032091F10020936D032091F1002093A3
:104490006E032091F10020936F032091F10020938F
:1044A00070032091F100209371032091F10020937B
:1044B00072032091F100209373032091F100209367
:1044C00074032091F100209375032091F100209353
:1044D00076032091E8002B772093E8001092F502F4
:1044E0009C01E0E04BCC6F927F928F929F92AF92B3
:1044F000BF92CF92DF92EF92FF920F931F93CF93D1
:10450000DF93719A7098813009F40DC2813008F000
:1045100097C182E08093E900CC24DD24760115E088
:10452000C5E5DAEAE2E0BE2E00EA8091E80082FD0D
:1045300006C00E944D0D8091E80082FFFACF80E016
:1045400090E03091E3022091E60235B912B9C1BB87
:1045500018B8DBB900007598759A35B9B2B8D1BBF7
:1045600018B8CBB900007598759A35B912B9C1BBA6
:1045700018B80BB900007598759A5091E4024091F3
:10458000E50255B942B921BB7091F1006091F1008B
:1045900078B96BB900007598759A2F5F2093E60281
:1045A000222341F44F5F4093E502442319F45F5FF7
:1045B0005093E40200C040E050E060E270E006C0CA
:1045C000415050406040704009F44CC1669BF8CFA8
:1045D00001968032910509F0B8CF8091E8008B7781
:1045E0008093E80080E490E0A0E0B0E0C80ED91E1F
:1045F000EA1EFB1E90E0C91690E2D90690E0E9069B
:1046000090E0F90609F091CFE091F602F0E0E95070
:10461000FD4F8BE480831092F60281E08093E900E5
:104620008091E80080FD06C00E944D0D8091E80059
:1046300080FFFACF8091F7028093F1008091F80219
:104640008093F1008091F9028093F1008091FA0249
:104650008093F1008091FB028093F1008091FC0235
:104660008093F1008091FD028093F1008091FE0221
:104670008093F1008091FF028093F100809100030C
:104680008093F100809101038093F10080910203F7
:104690008093F100809103038093F10080910403E3
:1046A0008093F100809105038093F10080910603CF
:1046B0008093F100809107038093F10080910803BB
:1046C0008093F100809109038093F10080910A03A7
:1046D0008093F10080910B038093F10080910C0393
:1046E0008093F10080910D038093F10080910E037F
:1046F0008093F10080910F038093F100809110036B
:104700008093F100809111038093F1008091120356
:104710008093F100809113038093F1008091140342
:104720008093F100809115038093F100809116032E
:104730008093F100809117038093F100809118031A
:104740008093F100809119038093F10080911A0306
:104750008093F10080911B038093F10080911C03F2
:104760008093F10080911D038093F10080911E03DE
:104770008093F10080911F038093F10080912003CA
:104780008093F100809121038093F10080912203B6
:104790008093F100809123038093F10080912403A2
:1047A0008093F100809125038093F100809126038E
:1047B0008093F100809127038093F100809128037A
:1047C0008093F100809129038093F10080912A0366
:1047D0008093F10080912B038093F10080912C0352
:1047E0008093F10080912D038093F10080912E033E
:1047F0008093F10080912F038093F100809130032A
:104800008093F100809131038093F1008091320315
:104810008093F100809133038093F1008091340301
:104820008093F100809135038093F10080913603ED
:104830008093F1008091E8008E778093E80003C0B8
:10484000823009F468C1DF91CF911F910F91FF90E1
:10485000EF90DF90CF90BF90AF909F908F907F9020
:104860006F90089501968032910541F02091F100FA
:104870002091F100019680329105C1F78091E80006
:104880008B778093E80080ECC8168FE1D80680E033
:10489000E80680E0F80681F18FEB9FE1A0E0B0E050
:1048A0008C199D09AE09BF0976E0B695A795979535
:1048B00087957A95D1F7EC012196CC24DD2480915F
:1048C000E80082FD06C00E944D0D8091E80082FF45
:1048D000FACF80E290E02091F1002091F100019761
:1048E000D1F78091E8008B778093E8000894C11C91
:1048F000D11CCC16DD0619F7E091F602F0E0E95084
:10490000FD4F84E580831092F60281E08093E900F8
:104910008091E80080FD8ECE0E944D0D8091E800D0
:1049200080FFFACF87CE42E04093E9009091E30206
:1049300095B925E022B985E581BB18B83AEA3BB9BB
:1049400000007598759A95B942B931BB18B88BB902
:1049500000007598759A95B922B981BB18B880E2A4
:104960008BB900007598759AE091E4023091E502E8
:104970002091E602E5B932B921BBCC24DD247601D1
:10498000C0EA8091E80082FD0CC00E944D0D80912C
:10499000E80082FFFACFE091E4023091E502209135
:1049A000E60280E090E018B8CBB900007598759ADF
:1049B0005091F1004091F10058B94BB90000759841
:1049C000759A2F5F2093E602222341F43F5F3093D4
:1049D000E502332319F4EF5FE093E402E5B932B95D
:1049E00021BB00C040E050E060E270E005C04150F3
:1049F000504060407040F9F0669BF9CF01968032DC
:104A0000910589F68091E8008B778093E80080E437
:104A100090E0A0E0B0E0C80ED91EEA1EFB1E90E0B8
:104A2000C91690E2D90690E0E90690E0F90609F08F
:104A3000A8CF80E01AC001968032910541F0209104
:104A4000F1002091F100019680329105C1F780912B
:104A5000E8008B778093E80080E490E0A0E0B0E08D
:104A6000C80ED91EEA1EFB1E81E018B890E99BB95A
:104A700000007598759A18B81BB800007598759A5B
:104A8000882309F43FC1A0E0CA16A0E2DA06A0E03C
:104A9000EA06A0E0FA0641F18091E80082FD06C036
:104AA0000E944D0D8091E80082FFFACF80E290E0F5
:104AB0002091F1002091F1000197D1F78091E80059
:104AC0008B778093E80080E490E0A0E0B0E0C80E2F
:104AD000D91EEA1EFB1E90E0C91690E2D90690E0AE
:104AE000E90690E0F906C0F2E091F602F0E0E95044
:104AF000FD4F84E580831092F60281E08093E90007
:104B00008091E80080FD96CD0E944D0D8091E800D7
:104B100080FFFACF8FCD8093E900CC24DD2476018D
:104B2000E091E4023091E5022091E60245E0942E06
:104B3000D5E5CAEA52E0A52E65E2B62E0FE119E2EC
:104B4000822E732E6E2E15B892B8D1BB18B8CBB981
:104B500000007598759A15B8A2B8C1BB18B8DBB932
:104B600000007598759AE5B932B921BB18B8BBB881
:104B700000007598759AE5B932B921BB18B80BB920
:104B800000007598759A8091E80082FD0CC00E9423
:104B90004D0D8091E80082FFFACFE091E402309160
:104BA000E5022091E60280E290E05091F100409110
:104BB000F10058B94BB900007598759A2F5F209392
:104BC000E602222341F43F5F3093E502332319F4D8
:104BD000EF5FE093E402E5B932B921BB019729F711
:104BE0008091E8008B778093E80065B872B881BA4D
:104BF00018B81BB900007598759A00C080E090E065
:104C0000A0E2B0E004C00197A109B10959F1669B87
:104C1000FACF80E490E0A0E0B0E0C80ED91EEA1E12
:104C2000FB1E90E0C91690E8D90690E0E90690E0F6
:104C3000F90609F085CFE091F602F0E0E950FD4F6A
:104C40008BE480831092F60281E08093E9008091EA
:104C5000E80080FDEFCC0E944D0D8091E80080FFC0
:104C6000FACFE8CCA0ECCA16AFE7DA06A0E0EA0675
:104C7000A0E0FA0681F18FEB9FE7A0E0B0E08C198D
:104C80009D09AE09BF0936E0B695A795979587951A
:104C90003A95D1F76C010894C11CD11CC0E0D0E05A
:104CA0008091E80082FD06C00E944D0D8091E800D1
:104CB00082FFFACF80E290E02091F1002091F10094
:104CC0000197D1F78091E8008B778093E8002196D7
:104CD000CC15DD0529F7E091F602F0E0E950FD4F33
:104CE00084E580831092F60281E08093E900809150
:104CF000E80080FD9FCC0E944D0D8091E80080FF70
:104D0000FACF98CCE091F602F0E0E950FD4F8BE449
:104D100080831092F60281E08093E9008091E800A0
:104D200080FD88CC0E944D0D8091E80080FFFACF75
:104D300081CCF89481E08093E00080E28093D800F9
:104D4000E9ECF0E010828FE493ECA0E0B0E0019792
:104D5000A109B109000001F0D1F7C89500001DBA02
:104D6000109268001CBC10BE1FBA10927A001092FC
:104D70006E0010926F0010927000109271001082FD
:104D80001092BC0011B814B817B81AB81DB810BAF0
:104D900012B815B818B81BB81EB811BA0C9400FE9A
:104DA0000895CF93DF9382E08093E900C0E0D2E0E2
:104DB0008091E80082FD06C00E944D0D8091E800C0
:104DC00082FFFACF80E49091F1008150E1F7809169
:104DD000E8008B778093E800219751F7E091F60285
:104DE000F0E0E950FD4F8BE480831092F60281E001
:104DF0008093E9008091E80080FD06C00E944D0D7F
:104E00008091E80080FFFACF8091F7028093F10053
:104E10008091F8028093F1008091F9028093F10073
:104E20008091FA028093F1008091FB028093F1005F
:104E30008091FC028093F1008091FD028093F1004B
:104E40008091FE028093F1008091FF028093F10037
:104E5000809100038093F100809101038093F10021
:104E6000809102038093F100809103038093F1000D
:104E7000809104038093F100809105038093F100F9
:104E8000809106038093F100809107038093F100E5
:104E9000809108038093F100809109038093F100D1
:104EA00080910A038093F10080910B038093F100BD
:104EB00080910C038093F10080910D038093F100A9
:104EC00080910E038093F10080910F038093F10095
:104ED000809110038093F100809111038093F10081
:104EE000809112038093F100809113038093F1006D
:104EF000809114038093F100809115038093F10059
:104F0000809116038093F100809117038093F10044
:104F1000809118038093F100809119038093F10030
:104F200080911A038093F10080911B038093F1001C
:104F300080911C038093F10080911D038093F10008
:104F400080911E038093F10080911F038093F100F4
:104F5000809120038093F100809121038093F100E0
:104F6000809122038093F100809123038093F100CC
:104F7000809124038093F100809125038093F100B8
:104F8000809126038093F100809127038093F100A4
:104F9000809128038093F100809129038093F10090
:104FA00080912A038093F10080912B038093F1007C
:104FB00080912C038093F10080912D038093F10068
:104FC00080912E038093F10080912F038093F10054
:104FD000809130038093F100809131038093F10040
:104FE000809132038093F100809133038093F1002C
:104FF000809134038093F100809135038093F10018
:10500000809136038093F1008091E8008E77809341
:10501000E800DF91CF910895E0EEF1E0A091E0018A
:10502000B091E1018FEF8C93A091E001B091E1018B
:105030009C919F7B9C93A091E001B091E1019C9198
:105040009F779C933497A081B1811C92A081B181FC
:105050009C9190649C93A081B1819C9190629C935F
:105060000190F081E02D908190619083E091DA01D0
:10507000F091DB011082E091D601F091D70110820E
:10508000E9E8F1E0A0918901B0918A018C93A091A7
:105090008901B0918A018C918F7B8C93A0918901B9
:1050A000B0918A018C918F778C933497A081B181D4
:1050B0001C92A081B1818C9180648C93A081B1817C
:1050C0008C9180628C930190F081E02D80818061D1
:1050D0008083E0918301F09184011082E0917F014F
:1050E000F09180011082089584B7877F84BF88E1A2
:1050F0000FB6F89480936000109260000FBE80E8B5
:1051000091E00FB6F89480936100909361000FBE18
:1051100091E895BF85BF0E94E11A0E94C20A0895D6
:10512000CF93DF93CDB7DEB764970FB6F894DEBFA9
:105130000FBECDBF0E94742878948091EC02843019
:1051400031F00E944D0D8091EC028430D1F70E9425
:105150000C288FE392E4AFE0B0E00197A109B10918
:10516000000001F0D1F7C89500001092780310926A
:1051700077031092F5021092F60280E4E7EFF2E076
:10518000DF01282F1D922A95E9F7E7E3F3E0DF011D
:105190001D928A95E9F7CC24DD241B8292E0F92E3A
:1051A00022E0E22E1601BA82A9820E944D0D8DEBFB
:1051B000582E8091EC028430C1F720917703309112
:1051C0007803C9012115310509F03DC1F092E900CC
:1051D0008091E80082FD06C00E944D0D8091E8009C
:1051E00082FFFACF2091F100209337038091F100E4
:1051F000809338039091F100909339039091F100DE
:1052000090933A039091F10090933B039091F100B9
:1052100090933C039091F10090933D039091F100A5
:1052200090933E039091F10090933F039091F10091
:10523000909340039091F100909341039091F1007D
:10524000909342039091F100909343039091F10069
:10525000909344039091F100909345039091F10055
:10526000909346039091F100909347039091F10041
:10527000909348039091F100909349039091F1002D
:1052800090934A039091F10090934B039091F10019
:1052900090934C039091F10090934D039091F10005
:1052A00090934E039091F10090934F039091F100F1
:1052B000909350039091F100909351039091F100DD
:1052C000909352039091F100909353039091F100C9
:1052D000909354039091F100909355039091F100B5
:1052E000909356039091F100909357039091F100A1
:1052F000909358039091F100909359039091F1008D
:1053000090935A039091F10090935B039091F10078
:1053100090935C039091F10090935D039091F10064
:1053200090935E039091F10090935F039091F10050
:10533000909360039091F100909361039091F1003C
:10534000909362039091F100909363039091F10028
:10535000909364039091F100909365039091F10014
:10536000909366039091F100909367039091F10000
:10537000909368039091F100909369039091F100EC
:1053800090936A039091F10090936B039091F100D8
:1053900090936C039091F10090936D039091F100C4
:1053A00090936E039091F10090936F039091F100B0
:1053B000909370039091F100909371039091F1009C
:1053C000909372039091F100909373039091F10088
:1053D000909374039091F100909375039091F10074
:1053E000909376039091E8009B779093E8002A834E
:1053F000198290E0E981FA818E2B9F2B909378039C
:1054000080937703E092F50242E0009709F4D1CE51
:1054100001979093780380937703242F2F5F209335
:10542000F502E22FF0E0EA5CFC4FE081F0E0EE31C3
:10543000F10508F0BECEE45BFF4FEE0FFF1F0590B5
:10544000F491E02D09944091F502403421F040346C
:1054500008F0AFCEDDCFF092E9008091E80082FD48
:105460000AC00E944D0D8091E80082FFFACF209182
:105470007703309178038091F10080933703809116
:10548000F100809338038091F1008093390380917B
:10549000F10080933A038091F10080933B03809167
:1054A000F10080933C038091F10080933D03809153
:1054B000F10080933E038091F10080933F0380913F
:1054C000F100809340038091F1008093410380912B
:1054D000F100809342038091F10080934303809117
:1054E000F100809344038091F10080934503809103
:1054F000F100809346038091F100809347038091EF
:10550000F100809348038091F100809349038091DA
:10551000F10080934A038091F10080934B038091C6
:10552000F10080934C038091F10080934D038091B2
:10553000F10080934E038091F10080934F0380919E
:10554000F100809350038091F1008093510380918A
:10555000F100809352038091F10080935303809176
:10556000F100809354038091F10080935503809162
:10557000F100809356038091F1008093570380914E
:10558000F100809358038091F1008093590380913A
:10559000F10080935A038091F10080935B03809126
:1055A000F10080935C038091F10080935D03809112
:1055B000F10080935E038091F10080935F038091FE
:1055C000F100809360038091F100809361038091EA
:1055D000F100809362038091F100809363038091D6
:1055E000F100809364038091F100809365038091C2
:1055F000F100809366038091F100809367038091AE
:10560000F100809368038091F10080936903809199
:10561000F10080936A038091F10080936B03809185
:10562000F10080936C038091F10080936D03809171
:10563000F10080936E038091F10080936F0380915D
:10564000F100809370038091F10080937103809149
:10565000F100809372038091F10080937303809135
:10566000F100809374038091F10080937503809121
:10567000F100809376038091E8008B778093E800B7
:105680001092F502C90140E0C0CEFB81FF2311F466
:105690000C949E34F13009F08CCD310184E391E01B
:1056A000830120E030E040E050E060E070E00E94E4
:1056B00089197FCD009711F00C94B634F092E9006F
:1056C0008091E80082FD06C00E944D0D8091E800A7
:1056D00082FFFACF2091F100209337038091F100EF
:1056E000809338039091F100909339039091F100E9
:1056F00090933A039091F10090933B039091F100C5
:1057000090933C039091F10090933D039091F100B0
:1057100090933E039091F10090933F039091F1009C
:10572000909340039091F100909341039091F10088
:10573000909342039091F100909343039091F10074
:10574000909344039091F100909345039091F10060
:10575000909346039091F100909347039091F1004C
:10576000909348039091F100909349039091F10038
:1057700090934A039091F10090934B039091F10024
:1057800090934C039091F10090934D039091F10010
:1057900090934E039091F10090934F039091F100FC
:1057A000909350039091F100909351039091F100E8
:1057B000909352039091F100909353039091F100D4
:1057C000909354039091F100909355039091F100C0
:1057D000909356039091F100909357039091F100AC
:1057E000909358039091F100909359039091F10098
:1057F00090935A039091F10090935B039091F10084
:1058000090935C039091F10090935D039091F1006F
:1058100090935E039091F10090935F039091F1005B
:10582000909360039091F100909361039091F10047
:10583000909362039091F100909363039091F10033
:10584000909364039091F100909365039091F1001F
:10585000909366039091F100909367039091F1000B
:10586000909368039091F100909369039091F100F7
:1058700090936A039091F10090936B039091F100E3
:1058800090936C039091F10090936D039091F100CF
:1058900090936E039091F10090936F039091F100BB
:1058A000909370039091F100909371039091F100A7
:1058B000909372039091F100909373039091F10093
:1058C000909374039091F100909375039091F1007F
:1058D000909376039091E8009B779093E8002F8750
:1058E0001E8690E02E853F85822B932B9093780324
:1058F00080937703E092F50222E0009711F00C9478
:10590000B83480E09FEF9D838C83F092E900809112
:10591000E80082FD06C00E944D0D8091E80082FFE4
:10592000FACF2091F100209337038091F10080930A
:1059300038039091F100909339039091F100909386
:105940003A039091F10090933B039091F100909372
:105950003C039091F10090933D039091F10090935E
:105960003E039091F10090933F039091F10090934A
:1059700040039091F100909341039091F100909336
:1059800042039091F100909343039091F100909322
:1059900044039091F100909345039091F10090930E
:1059A00046039091F100909347039091F1009093FA
:1059B00048039091F100909349039091F1009093E6
:1059C0004A039091F10090934B039091F1009093D2
:1059D0004C039091F10090934D039091F1009093BE
:1059E0004E039091F10090934F039091F1009093AA
:1059F00050039091F100909351039091F100909396
:105A000052039091F100909353039091F100909381
:105A100054039091F100909355039091F10090936D
:105A200056039091F100909357039091F100909359
:105A300058039091F100909359039091F100909345
:105A40005A039091F10090935B039091F100909331
:105A50005C039091F10090935D039091F10090931D
:105A60005E039091F10090935F039091F100909309
:105A700060039091F100909361039091F1009093F5
:105A800062039091F100909363039091F1009093E1
:105A900064039091F100909365039091F1009093CD
:105AA00066039091F100909367039091F1009093B9
:105AB00068039091F100909369039091F1009093A5
:105AC0006A039091F10090936B039091F100909391
:105AD0006C039091F10090936D039091F10090937D
