:100000000C94AF000C94CE000C94CE000C94CE0057
:100010000C94CE000C94CE000C94CE000C94CE0028
:100020000C94CE000C94CE000C94D0020C94CE0014
:100030000C94CE000C94CE000C94CE000C94CE0008
:100040000C94CE000C94CE000C94CE000C94CE00F8
:100050000C94CE000C94CE000C94CE000C94CE00E8
:100060000C94CE000C94CE000C94CE000C94CE00D8
:100070000C94CE000C94CE000C94CE000C94CE00C8
:100080000C94CE000C94CE000C94CE000C94CE00B8
:100090000C94CE000C94CE00EC2ACF2A972A752A15
:1000A000122B0E2BE426E126622A5E2A5A2AE72624
:1000B0006B2A662A702A6525982590258825802533
:1000C000782570256D256925A0259C25A4253E242D
:1000D000EF21681FCE2108033000300031000000FE
:1000E00036034E0041004E0044004F00520077009E
:1000F0006100790020004E0041004E0044002F00B6
:100100004E004F005200200046006C00610073005A
:1001100068006500720000000E036A00750064004C
:100120006700650073000000040309040902200051
:10013000010100C07D0904000002FF000000070566
:100140008102400000070502024000001201000287
:10015000000000080BB0BEBA000001020301112428
:100160001FBECFEFD0E2DEBFCDBF11E0A0E0B1E017
:10017000ECEFFBE600E00BBF02C007900D92A23E41
:10018000B107D9F722E0A2EEB1E001C01D92A93774
:10019000B207E1F70E941E1F0C94FC350C9400007E
:1001A000292F33272230310541F123303105A9F0C1
:1001B0002130310549F020E030E080E090E0FA01A4
:1001C00091838083C901089522E130E08CE491E0BD
:1001D000FA0191838083C90108959927813091059F
:1001E000A9F004F182309105B9F0039721F7E6ED0B
:1001F000F0E0249130E0CF01E2CF20E230E08CE269
:1002000091E0FA0191838083C9010895E8E1F1E06A
:10021000249130E0CF01D3CFE0EEF0E0249130E044
:10022000CF01CDCF892B09F0C6CFE8E2F1E02491D0
:1002300030E0CF01C4CF2091F3013091F4012617B3
:10024000370758F06115710509F069C02091E80081
:100250002E772093E80020E030E060E021153105A2
:1002600041F5662309F44FC04091EC01442309F4A1
:1002700058C0453009F451C04091E80043FD53C0D7
:100280004091E80042FD3FC04091E80040FFECCFC4
:100290004091F2005091F30061E04830510509F0BF
:1002A00060E04091E8004E774093E8002115310569
:1002B000C1F24091EC014423A1F1453071F140912C
:1002C000E80043FD30C04091E80042FD1CC0409171
:1002D000E80040FFEECF4091F2005091F30048302B
:1002E0005105D0F6FC0103C048305105A9F28191B7
:1002F0008093F100CF01215031094F5F5F4F2115ED
:10030000310591F7C9CF8091E80082FD0EC0809140
:10031000EC01882331F08530B1F783E008959B012B
:100320009CCF82E0089581E0089580E008952091B7
:10033000F3013091F4012617370758F06115710564
:1003400009F067C02091E8002E772093E80020E0B4
:1003500030E0FC0140E02115310539F5442309F472
:100360004CC08091EC01882309F455C0853009F414
:100370004EC08091E80083FD50C08091E80082FD6E
:100380003CC08091E80080FFECCF8091F20090911A
:10039000F30041E0089709F040E08091E8008E7793
:1003A0008093E80021153105C9F28091EC01882382
:1003B00091F1853061F18091E80083FD2EC080913C
:1003C000E80082FD1AC08091E80080FFEECF8091A6
:1003D000F2009091F3008830910520F0DACF883058
:1003E0009105B9F244914093F100319621503109C1
:1003F00001962115310599F7CCCF8091E80082FD57
:100400000EC08091EC01882331F08530B1F783E094
:1004100008959B019ECF82E0089581E0089580E0D9
:100420000895873098F58093E900982F242F762F30
:1004300050E021FF19C03091EB003E7F3093EB007C
:100440003091ED003D7F3093ED003091EB00316055
:100450003093EB007093EC002093ED005093F0008C
:100460002091EE0027FF1BC09F5F973079F090939B
:10047000E900891781F07091EC002091ED00509116
:10048000F00021FDD8CF9F5F973089F78F70809360
:10049000E90081E00895242F762F50E0CACF80E054
:1004A00008958091ED0187FD09C08091E80080FDED
:1004B0000EC08091EC018111F8CF08958091E80081
:1004C00082FD0BC08091EC018111F8CF08958091DD
:1004D000E8008E778093E80008958091E8008B779C
:1004E0008093E80008950F931F93CF93DF9307ED58
:1004F00010E0F80180818160808381E08093EB01CE
:100500000E94C3020E94CB02C8EDD0E088818F77A1
:10051000888388818068888388818F7D8883F801BB
:1005200080818068808319BC1092EC011092E801F0
:100530001092EA011092E90100EE10E0F8018081CA
:100540008B7F808388818160888342E060E080E0E7
:100550000E941102E1EEF0E080818E7F8083E2EE66
:10056000F0E0808181608083808188608083F801F1
:1005700080818E7F8083888180618883DF91CF91A5
:100580001F910F910895E8EDF0E080818C7F8083CA
:100590001092E20008951092DA001092E10008959E
:1005A0001F920F920FB60F9211240BB60F922F933A
:1005B0003F934F935F936F937F938F939F93AF93EB
:1005C000BF93EF93FF938091E10082FF04C080917D
:1005D000E20082FD92C08091DA0080FF04C0809129
:1005E000D80080FD53C08091E10080FF04C080915D
:1005F000E20080FD8AC08091E10084FF2CC08091E0
:10060000E20084FF28C084E189BD86E189BD09B488
:1006100000FEFDCF8091D8008F7D8093D80080911F
:10062000E1008F7E8093E1008091E2008F7E8093D5
:10063000E2008091E20081608093E2008091E80115
:10064000811179C08091E30087FF7FC084E08093AF
:10065000EC010E9443058091E10083FF04C080917A
:10066000E20083FD29C0FF91EF91BF91AF919F916F
:100670008F917F916F915F914F913F912F910F904B
:100680000BBE0F900FBE0F901F9018958091DA004F
:100690008E7F8093DA008091D90080FF50C084E182
:1006A00089BD86E189BD09B400FEFDCF81E080935C
:1006B000EC010E94430597CF8091E100877F8093F2
:1006C000E10082E08093EC011092E8018091E1006A
:1006D0008E7F8093E1008091E2008E7F8093E20024
:1006E0008091E20080618093E20042E060E080E07F
:1006F0000E9411020E944305B6CF8091E1008B7FDA
:100700008093E1000E94430566CF8091E2008E7FD6
:100710008093E2008091E20080618093E20080910A
:10072000D80080628093D80019BC85E08093EC01EA
:100730000E94430560CF84E08093EC018ACF19BC0E
:100740001092EC010E9443054ECF81E080CFEF92E2
:10075000FF920F931F93CF93DF93CDB7DEB7AC9784
:100760000FB6F894DEBF0FBECDBF8091F10080932D
:10077000ED018091F1008093EE018091F100809372
:10078000EF018091F1008093F0018091F10080935E
:10079000F1018091F1008093F2018091F10080934A
:1007A000F3018091F1008093F4010E944305809150
:1007B000E80083FF11C08091ED012091EE0125300A
:1007C00009F463C020F1283009F4EDC0293009F4A0
:1007D000CFC0263009F47FC08091E80083FF0AC0B3
:1007E0008091EB0080628093EB008091E800877F2E
:1007F0008093E800AC960FB6F894DEBF0FBECDBF75
:10080000DF91CF911F910F91FF90EF9008952130CC
:1008100021F008F487C02330F9F6882309F4D7C003
:100820008230D1F68091EF01811125C08091F101D4
:100830009091F2018F709927009771F28093E900EF
:100840003091EB0030FF17C0233009F414C19091B0
:10085000EB0090619093EB0021E030E001C0220FAB
:100860008A95EAF72093EA001092EA008091EB0063
:1008700088608093EB001092E9008091E800877F08
:100880008093E8000E945102A7CF8111A5CF00916B
:10089000EF011091F0010F771127E02EFFB6F894C9
:1008A0008091E800877F8093E8000E945102809148
:1008B000E80080FFFCCF8091E3008078802B80935C
:1008C000E30080688093E300E11096C082E08093AB
:1008D000EC01FFBE81CF8058823008F07DCF80913F
:1008E000EF019091F0018C3D23E0920709F486C05E
:1008F000AE01455D5F4F6091F1010E94D00000970D
:1009000009F46ACF2091E800277F2093E800BC011A
:100910008BA59CA50E9497018091E8008B7780931E
:10092000E8005ACF803809F45EC0823809F054CF0D
:100930008091F1019091F2018F7099278093E900E5
:100940009091EB0095FB992790F91092E900809126
:10095000E800877F8093E8009093F1001092F10007
:100960008091E8008E778093E8000E94510234CF96
:10097000811132CF8091EF01823008F02DCF90911C
:10098000E800977F9093E8008093E8010E9451026D
:100990008091E801882309F466C084E08093EC012B
:1009A0000E94BF3419CF803809F016CF8091E8003B
:1009B000877F8093E8008091E8018093F100809127
:1009C000E8008E778093E8000E94510205CF809165
:1009D000EF01813009F000CF81E0233009F080E0A1
:1009E0008093EA0148CF9091E9018091EA01882340
:1009F00009F4ADCF9260ABCF83E069CF83E08A8307
:100A00008AE289835FB7F894DE01139620E03EE026
:100A100041E207C090E0C7968D939D932F5F2431EC
:100A200081F0E32FF0E040935700849120FF03C052
:100A300082958F703F5F8F708A3060F790E0C0962C
:100A4000EBCF5FBF8091E800877F8093E8006AE288
:100A500070E0CE0101960E941B018091E8008B7727
:100A60008093E800B9CE8091E30087FF0AC084E05C
:100A70008093EC0195CF8091EB0080628093EB0036
:100A8000FACE81E0F5CF0895CF938091EC018823D1
:100A9000A1F08091E9008F709091EC0090FD0FC063
:100AA00090E0C92FC82B1092E9009091E80093FDC7
:100AB0000FC08C2F8F708093E900CF91089590E83C
:100AC000C92FC82B1092E9009091E80093FFF1CF55
:100AD0000E94A703EECF2F923F924F925F926F92A8
:100AE0007F928F929F92AF92BF92CF92DF92EF92BE
:100AF000FF920F931F93CF93DF93CDB7DEB7AB97E2
:100B00000FB6F894DEBF0FBECDBF2C01D62E09A3C1
:100B10002AA33BA34CA35DA321962FAD2197229638
:100B20003FAD229723964FAD239724965FAD249730
:100B300025966FAD259726967FAD269727968FAD84
:100B4000279728969FAD289705E0D01609F488C30B
:100B50000D1580F5A7E0DA1609F47BC2DA1608F461
:100B6000D2C0B8E0DB1609F4C8C3E9E0DE1609F428
:100B700089C38DEFC82EDD24DA94ED2CFD2CB6014F
:100B8000C701AB960FB6F894DEBF0FBECDBFDF91A5
:100B9000CF911F910F91FF90EF90DF90CF90BF907A
:100BA000AF909F908F907F906F905F904F903F900D
:100BB0002F900895A2E0DA1609F440C3AD1508F0AD
:100BC0008DC0E3E0DE1609F4C6C204E0D012D1CF36
:100BD000F201E15BFF4F0190F081E02D8FEF808308
:100BE000F201E55BFF4F0190F081E02D8083F2017F
:100BF000EF5AFF4F80819181DC012C91B201665B3D
:100C00007F4FDB013C91232BDC012C938081918170
:100C1000DC015C919201295B3F4FD9014C914095D9
:100C20004523DC014C9380819181DC014C91D901F9
:100C30002C91422BDC014C930190F081E02D9081AE
:100C4000DB018C91809589238083198E1A8E80E236
:100C50008B8F1C8E1D8E1E8E1F8E18A2298D3A8D95
:100C60004B8D5C8D6D8D7E8D8F8D98A1A0E00E9447
:100C7000D93569F1F201EB5BFF4FB081F201ED5A1A
:100C8000FF4F0190F081E02D80818B2309F0ECC0B3
:100C9000298D3A8D4B8D5C8D6D8D7E8D8F8D98A1BC
:100CA000AFEF0E94CD35298F3A8F4B8F5C8F6D8FC0
:100CB0007E8F8F8F98A3298D3A8D4B8D5C8D6D8D96
:100CC0007E8D8F8D98A1A0E00E94D935E9F69CEF2A
:100CD000C92EDD24DA94ED2CFD2C51CFB1E0DB12CE
:100CE00048CF1201BFE42B0E311CD101ED91FC91D4
:100CF000AFEFA0833201BBE46B0E711CD301ED9109
:100D0000FC91108212C01201BFE42B0E311CD101E4
:100D1000ED91FC91AFEFA0833201BBE46B0E711C2F
:100D2000D301ED91FC91A5E8A083F201EF5AFF4FAA
:100D300080809180D401CC90D201A65BBF4FBFA32D
:100D4000AEA3BC90CB28D401CC92A081B181B9A72D
:100D5000A8A79C905201B7E4AB0EB11CD501CC9072
:100D6000C094C920A8A5B9A5CC92A081B181B9A78A
:100D7000A8A7CC90D5019C90C928A8A5B9A5CC92CC
:100D8000A081B181B9A7A8A79C90AEA1BFA1CC902A
:100D9000C094C920A8A5B9A5CC92A081B181BBA758
:100DA000AAA7CC90D201A75BBF4FB9A7A8A79C90D8
:100DB000C928AAA5BBA5CC92D1018D909C90CC242A
:100DC000CA94D401CC92D3018D909C90D4012C93E1
:100DD000A081B181BBA7AAA78C90D5019C909094CB
:100DE0009820AAA5BBA59C92A081B181BBA7AAA768
:100DF0009C90D5018C909828AAA5BBA59C9208E050
:100E00000E94BE35D1018D919C91DC01CC92D30121
:100E10008D919C91DC012C9320813181D9019C9191
:100E2000D5018C9180958923D9018C9320813181C2
:100E3000D9018C91D5019C91892BD9018C93B1E07A
:100E4000DB16B1F005E0D01699F020813181D9018F
:100E50009C91A8A5B9A58C9180958923D9018C93E3
:100E6000B2E0DB1609F48CC3C12CD12C760187CEFD
:100E7000D1018D919C91CC24CA94DC01CC92D301F8
:100E80008D919C91DC01EC9280819181DC013C91FF
:100E9000D5012C9120952323DC012C938081918115
:100EA000DC012C91D5013C91232BDC012C93970183
:100EB00049A1512F6AA17BA18CA19DA108E00E94AC
:100EC000BE35D1018D919C91DC01CC92D3018D91E5
:100ED0009C91DC012C9380819181DC013C91D501B6
:100EE0002C9120952323DC012C9380819181DC01BE
:100EF0002C91D5013C91232BDC012C93970149A126
:100F0000512F6AA17BA18CA19DA100E10E94BE3559
:100F1000D1018D919C91DC01CC92D3018D919C915A
:100F2000DC012C9380819181DC013C91D5012C91D5
:100F300020952323DC012C9380819181DC012C916D
:100F4000D5013C91232BDC012C9380819181DC0124
:100F50003C91A8A5B9A52C9120952323DC012C93C5
:100F6000B1E0DB127DCFD1018D919C91DC01CC925F
:100F7000D3012D913C9180E3D9018C932081318163
:100F8000D9018C91AEA1BFA19C91892BD9018C93E1
:100F900020813181D9019C91D5018C918095892343
:100FA000D9018C9320813181D9018C91D5019C91FB
:100FB000892BD9018C930190F081E02D9081AEA115
:100FC000BFA18C9180958923808319821A8280E247
:100FD0008B831C821D821E821F82188629813A8182
:100FE0004B815C816D817E818F819885A0E00E941C
:100FF000D93509F46CCEF201EB5BFF4FB081F20101
:10100000ED5AFF4F0190F081E02D80818B2309F094
:101010002BCF29813A814B815C816D817E818F81CB
:101020009885AFEF0E94CD3529833A834B835C834B
:101030006D837E838F83988729813A814B815C8180
:101040006D817E818F819885A0E00E94D935E9F677
:101050003ECEF201E15BFF4F0190F081E02D8FEF7A
:101060008083F201E55BFF4F0190F081E02D80E18C
:101070008083F201EF5AFF4F80819181DC012C9136
:10108000B201665B7F4FDB013C91232BDC012C938B
:1010900080819181DC015C919201295B3F4FD901F4
:1010A0004C9140954523DC014C9380819181DC017A
:1010B0004C91D9012C91422BDC014C930190F08191
:1010C000E02D9081DB018C91809589238083198AA2
:1010D0001A8A80E28B8B1C8A1D8A1E8A1F8A188EB0
:1010E00029893A894B895C896D897E898F89988D98
:1010F000A0E00E94D93509F4EACDF201EB5BFF4F85
:10110000B081F201ED5AFF4F0190F081E02D808116
:101110008B2309F0A9CE29893A894B895C896D898D
:101120007E898F89988DAFEF0E94CD35298B3A8BC0
:101130004B8B5C8B6D8B7E8B8F8B988F29893A893B
:101140004B895C896D897E898F89988DA0E00E948A
:10115000D935E9F6BCCD9201215B3F4FD901ED9124
:10116000FC911FEF1083C201855B9F4FDC01ED9165
:10117000FC9140E94083F201EF5AFF4FE080F1809B
:10118000D7014C91B201665B7F4FDB015C91452B2F
:10119000D7014C9340815181DA01EC906201B7E4B0
:1011A000CB0ED11CD601FC90F094FE20DA01FC920B
:1011B00040815181DA01FC90D601EC90FE28DA01E1
:1011C000FC9240815181DA01FC90DB016C916095C9
:1011D0006F21DA016C9340815181DA016C91B9E49D
:1011E0004B0E511CD2017C91672BDA016C93D90113
:1011F0002D913C91D9011C93DC018D919C91DC01D6
:101200001C9280819181DC013C91D6012C9120952A
:101210002323DC012C9380819181DC012C91D60168
:101220003C91232BDC012C930190F081E02D9081E7
:10123000D2018C9180958923808316CE1201BFE460
:101240002B0E311CD101ED91FC91AFEFA083320147
:10125000BBE46B0E711CD301ED91FC91A5E064CD54
:101260001201BFE42B0E311CD101ED91FC91AFEFC7
:10127000A0833201BBE46B0E711CD301ED91FC9194
:10128000A0E852CDF201E15BFF4F0190F081E02D2B
:101290008FEF8083F201E55BFF4F0190F081E02D3D
:1012A00080E78083F201EF5AFF4F80819181DC015A
:1012B0002C91A201465B5F4FDA013C91232BDC01AC
:1012C0002C9380819181DC013C91B7E44B0E511C41
:1012D000D2012C9120952323DC012C9380819181D4
:1012E000DC012C91D2013C91232BDC012C93019049
:1012F000F081E02D9081DA019CCF5201BFE4AB0E6A
:10130000B11CD501ED91FC9122242A942082620126
:10131000BBE4CB0ED11CD601ED91FC9180E680831D
:10132000F201EF5AFF4F20813181D9018C914201A6
:10133000BAE48B0E911CD4019C91892BD9018C931A
:1013400080819181DC013C91D201A95BBF4FBFA399
:10135000AEA32C9120952323DC012C9380819181D5
:10136000DC012C91AEA1BFA13C91232BDC012C937D
:1013700080819181DC013C91D4012C912095232323
:10138000DC012C9380819181DC012C913201B9E444
:101390006B0E711CD3013C91232BDC012C93D501E6
:1013A0008D919C91DC012C92D6018D919C91DC0158
:1013B000EC9280819181DC013C91AEA1BFA12C9186
:1013C00020952323DC012C9380819181DC012C91D9
:1013D000AEA1BFA13C91232BDC012C93970149A125
:1013E000512F6AA17BA18CA19DA108E00E94BE356E
:1013F000D5018D919C91DC012C92D6018D919C910F
:10140000DC012C9380819181DC013C91AEA1BFA1D4
:101410002C9120952323DC012C9380819181DC0188
:101420002C91AEA1BFA13C91232BDC012C93970101
:1014300049A1512F6AA17BA18CA19DA100E10E942D
:10144000BE35D5018D919C91DC012C92D6018D91F8
:101450009C91DC012C9380819181DC013C91AEA1B7
:10146000BFA12C9120952323DC012C9380819181B5
:10147000DC012C91AEA1BFA13C91232BDC012C936C
:1014800080819181DC013C91D3012C912095232313
:10149000DC012C93D5018D919C91DC012C92D6011D
:1014A0008D919C9120EDDC012C9380819181DC0158
:1014B0002C91D4013C91232BDC012C9380819181D0
:1014C000DC013C91AEA1BFA12C9120952323DC012E
:1014D0002C9380819181DC012C91AEA1BFA13C9124
:1014E000232BDC012C930190F081E02D9081D4011D
:1014F0008C9180958923808319861A8680E28B8758
:101500001C861D861E861F86188A29853A854B856E
:101510005C856D857E858F859889A0E00E94D93590
:1015200009F4D5CBF201EB5BFF4FB081F201ED5A2C
:10153000FF4F0190F081E02D80818B2309F094CC46
:1015400029853A854B855C856D857E858F85988953
:10155000AFEF0E94CD3529873A874B875C876D872F
:101560007E878F87988B29853A854B855C856D852D
:101570007E858F859889A0E00E94D935E9F6A7CBB2
:10158000D1012D913C918FEFD9018C93D3012D91F5
:101590003C9180EEF1CC2F923F924F925F926F92EE
:1015A0007F928F929F92AF92BF92CF92DF92EF92F3
:1015B000FF920F931F93CF93DF93CDB7DEB764975E
:1015C0000FB6F894DEBF0FBECDBF4C01BC016B5A05
:1015D0007F4FFB01A081B1818C9194012C5B3F4F27
:1015E000F9019081892B8C93F401EF5AFF4F808190
:1015F0009181DC014C91D9012C9120952423DC01AF
:101600002C93DB018D919C91DC013C913401B5E47C
:101610006B0E711CD3012C9120952323DC012C939C
:1016200080819181DC012C91D3013C91232BDC0141
:101630002C93DB018D919C91DC012C912401B6E46B
:101640004B0E511CD2013C91232BDC012C93808149
:101650009181DC012C91D2013C91232BDC012C9354
:10166000DB018D919C91DC012C918401095B1F4F62
:10167000D8013C91232BDC012C9380819181DC01EA
:101680002C91D8013C91232BDC012C93DB018D9113
:101690009C91DC014C919401285B3F4FD9015C91F6
:1016A000452BDC014C9380819181DC014C91D90167
:1016B0002C91422BDC014C93DB018D919C91DC0140
:1016C0002C916401B9E4CB0ED11CD6013C91232BA3
:1016D000DC012C9380819181DC013C91D6012C911D
:1016E00020952323DC012C93DB012D913C91D90122
:1016F0008C917401BAE4EB0EF11CD7019C91892BFB
:10170000D9018C9320813181D9019C91D7018C9191
:1017100080958923D9018C935401BFE4AB0EB11C91
:10172000D5012D913C918FEFD9018C931401BBE42D
:101730002B0E311CD1012D913C91D9018C9320812C
:101740003181D9018C91D7019C91892BD9018C933E
:1017500020813181D9019C91D8018C918095892378
:10176000D9018C9320813181D9018C91D8019C9130
:10177000892BD9018C9320813181D9019C91D7018A
:101780008C9180958923D9018C9319821A8280E2E9
:101790008B831C821D821E821F82188629813A81BA
:1017A0004B815C816D817E818F819885A0E00E9454
:1017B000D93509F452C2D301BC91B987C4018D5AFD
:1017C0009F4FDC016D907C9020C029813A814B8134
:1017D0005C816D817E818F819885AFEF0E94CD35D0
:1017E00029833A834B835C836D837E838F839887C1
:1017F00029813A814B815C816D817E818F819885C1
:10180000A0E00E94D93509F428C2D3018C91B98592
:101810008B23D9F2D5012D913C918FEFD9018C9377
:10182000D1012D913C9190E9D9019C934081518146
:10183000DA019C91D7012C91922BDA019C93408183
:101840005181DA012C91D8019C9190959223DA0173
:101850009C9340815181DA019C91D8012C91922B6B
:10186000DA019C9340815181DA012C91D7019C913E
:1018700090959223DA019C9340815181DA019C91E9
:10188000D6012C91922BDA019C93D5012D913C919C
:10189000D9018C93D1012D913C91D9011C924081A9
:1018A0005181DA012C91D8019C9190959223DA0113
:1018B0009C9340815181DA019C91D8012C91922B0B
:1018C000DA019C9340815181DA012C91D6019C91DF
:1018D00090959223DA019C93D5012D913C91D901E9
:1018E0009C911C92D1012D913C91D9019C918C939A
:1018F00020813181D9019C91D2018C9180958923DD
:10190000D9018C930000B401635B7F4FDB018D91A3
:101910009C91DC013C9180819181DC012C91D20170
:101920004C91242BDC012C9380819181DC014C9122
:10193000D2012C9120952423DC012C930000DB01A3
:101940008D919C91DC014C9180819181DC012C91E5
:10195000D2015C91252BDC012C9380819181DC01EB
:101960005C91D2012C9120952523DC012C93000061
:10197000DB018D919C91DC018C9180819181DC0156
:101980002C91D2015C91252BDC012C9380819181DB
:10199000DC015C91D2012C9120952523DC012C9354
:1019A0000000DB018D919C91DC013C908081918154
:1019B000DC012C91D2015C91252BDC012C938081E0
:1019C0009181DC015C91D2012C9120952523DC01D1
:1019D0002C930000DB018D919C91DC012C912093D4
:1019E000E2010190F081E02D8081D2019C91892B50
:1019F0008083F40132834383332D337080E094E09D
:101A000002C0880F991F3A95E2F72C01662457FC13
:101A10006094762C4482558266827782D301C2011B
:101A2000AA27BB27892B8A2B8B2B09F035C1C30131
:101A3000AA27BB2740E168E1382F811102C0392F66
:101A4000462F932F3F7009F42FC152E080E0392FC9
:101A5000337019F496959695852F90FF8F5F840FBC
:101A600090E0A0E0B0E0F40180879187A287B3877F
:101A7000832D807382958F70A12CB12C6501C39446
:101A800004C0AA0CBB1CCC1CDD1C8A95D2F7A9860D
:101A9000BA86CB86DC86D4015096AD92BD92CD92AB
:101AA000DC925397322F36953695337081E090E073
:101AB000032E01C0880F0A94EAF7A82E90968C9303
:101AC00022952770243009F47FC108F006C1223026
:101AD00009F494C108F43FC1D40191961C929197E6
:101AE00092961C92929793961C92939784E0949668
:101AF0008C93949795961C92959796961C92969790
:101B000097961C92979798961C9240E054E036FC6A
:101B1000DAC088E090E0A0E0B0E0F401848F958F17
:101B2000A68FB78FB12CC12CD12CE12CF12C00E069
:101B300010E020E030E060E070E080E090E00E94A3
:101B40000735C984DA84EB84FC8456016701E12CF3
:101B5000F12C8701AD86BE86CF86D88AE98AFA8ABB
:101B60000B8B1C8BE12CF12C00E010E00E94FB346D
:101B7000D40158962C93589759963C9359975A9656
:101B80004C935A975B965C9369857A858B859C8587
:101B9000A30192010E94C934F40124873587468746
:101BA0005787DA01C901AA27BB27892B8A2B8B2BE0
:101BB00009F082C09A014427552770E198E1622F0D
:101BC000832F211101C0BC01962F6F7009F071C0E5
:101BD00092959F7036E084E0292F237019F4969532
:101BE0009695832F90FF8F5F870F90E0A0E0B0E085
:101BF000F401848B958BA68BB78B4114F2E05F06C2
:101C00006104710408F45BC0D40199961C92A3018D
:101C1000920169E056954795379527956A95D1F7D2
:101C200032FA332430F8A8E0B0E002C0AA0FBB1F9C
:101C30003A94E2F70E94F134603171058105910513
:101C400009F474C0603471058105910509F465C01B
:101C50000DEF1FEF2FEF3FEF04C00EEF1FEF2FEF41
:101C60003FEFB801C90164960FB6F894DEBF0FBE0E
:101C7000CDBFDF91CF911F910F91FF90EF90DF903B
:101C8000CF90BF90AF909F908F907F906F905F901C
:101C90004F903F902F900895D301C20140E068E03B
:101CA000382F8111CECECBCE92959F7056E084E036
:101CB000CECE32E080E090CF70E098E080CF85E03B
:101CC000F40181A7A4CF80E190E0A0E0B0E0F401AE
:101CD000848F958FA68FB78F25CF263009F481C0CA
:101CE00058F5D40191961C92919792961C929297D6
:101CF00093961C92939780E194968C9394979596E3
:101D00001C92959796961C92969797961C929797E9
:101D100098961C9240E050E1FACE8AE191E0F401FD
:101D20009183808300E010E098019BCF80E091E0F8
:101D3000D4018D939C93F6CF273051F1F40111A279
:101D400012A280E883A314A215A216A217A210A6BD
:101D500040E850E0DCCE213089F7D40191961C9206
:101D6000919792961C92929793961C929397949621
:101D70002C93949795961C92959796961C9296976D
:101D800097961C92979798961C9240E051E0BFCE90
:101D9000D40191961C92919792961C929297939649
:101DA0001C92939780E494968C93949795961C92AA
:101DB000959796961C92969797961C9297979896B9
:101DC0001C9240E050E4A3CEF40111A212A213A28F
:101DD00088E084A315A216A217A210A640E058E03E
:101DE00096CEF40111A212A213A280E284A315A23E
:101DF00016A217A210A640E050E289CEF40111A26B
:101E000012A213A224A315A216A217A210A640E0A4
:101E100052E07DCE2F923F924F925F926F927F92CF
:101E20008F929F92AF92BF92CF92DF92EF92FF92EA
:101E30000F931F93CF93DF93CDB7DEB769970FB69C
:101E4000F894DEBF0FBECDBF2C010D87612E2E870B
:101E50003F87488B598B6A8B7B8BDC01ED91FC9122
:101E60001197808114968D909C901597880E911CE7
:101E700081E08093E9001C968D919D910D90BC911D
:101E8000A02D892B8A2B8B2B09F4D5C019861A8695
:101E90001B861C86212C312CF201E15BFF4FFF8B4E
:101EA000EE8B9201255B3F4F3D8B2C8B77247394F7
:101EB00001E5C02ED12CC40CD51C82010A5B1F4F3A
:101EC0008DE4A82EB12CA40CB51CC2012101D98E21
:101ED000C88E68011C012D85362D4E855F85688969
:101EE00079898A899B89D10154960C910E94AF35DA
:101EF00029833A834B835C836D837E838F839887AA
:101F000089859A85AB85BC8529813A814B815C8125
:101F1000820F931FA41FB51F9C01AD011F921F923A
:101F20001F921F921F921F921F921F927C018A0183
:101F300020E030E040E050E061E0C1010E946B052C
:101F4000AE89BF89ED91FC9120811082AC89BD8959
:101F5000ED91FC912081BFEFB0830FB6F894DEBF06
:101F60000FBECDBF8114910409F450C000E010E011
:101F700069837A838B839C837201C501A88CB98C99
:101F8000AC012091E80020FD08C02A010E94440510
:101F90008091E80080FFFACFA20189819A81AB810C
:101FA000BC818C3F9F4FAF4FBF4F09F460C030E4FE
:101FB000CA01D501ED91FC914081D6012C9120956B
:101FC000242320830000FC0140815181DA014C91DF
:101FD0004093E201D501ED91FC912081D6015C9105
:101FE000252B20834093F100315019F7AC0120914B
:101FF000E8002E772093E800005C1F4F08151905B4
:1020000008F4BFCF2701B98EA88E5A01FFEF4F1AEF
:102010005F0A920140E050E029873A874B875C874E
:10202000F10184859585A685B785281739074A0764
:102030005B0708F450CF60E070E0CB0169960FB603
:10204000F894DEBF0FBECDBFDF91CF911F910F91EE
:10205000FF90EF90DF90CF90BF90AF909F908F90C8
:102060007F906F905F904F903F902F90089520E465
:102070007092F1002150E1F7BACF0C94CB0A0F9384
:102080001F930E940A0F1F910F9108958FEF87B938
:102090008AB984B981B980BB15B812B811BA8DB9A3
:1020A0006E98769A8EB18E778EB98EB182638EB924
:1020B0001092E3011092E4011092E5011092E60102
:1020C00008951DB817B81AB814B811B810BA8FEF20
:1020D0008EB988B98BB985B982B981BB08958093CF
:1020E000E4016093E5014093E60185B962B941BB23
:1020F00008958093E70108958093E30108959091F6
:10210000E6019F5F9093E601911107C02091E501E0
:102110002F5F2093E501222351F0882339F080912D
:10212000E40185B98091E50182B991BB08952091C0
:10213000E4012F5F2093E401F0CF7498C895C8950F
:1021400000C0749AC895C89500C00895CF93DF93D6
:10215000719A709815B895E092B985E581BB18B869
:102160002AEA2BB900007598759A15B832E032B991
:1021700021BB18B88BB900007598759A15B892B93B
:1021800081BB18B880E98BB900007598759A15B8AD
:1021900012B811BA17B81AB818B81BB8719800005D
:1021A00086B1E091F601AE2FB0E0A950BE4F8C93FE
:1021B000AE2FAF5FA093F60189B1B0E0A950BE4F3A
:1021C0008C93AE2FAE5FA093F601719A8FEF87B913
:1021D0008AB915B812B891E091BB17B81AB818B8F7
:1021E0001BB87198000026B1CA2FD0E0C950DE4F4D
:1021F0002883CE2FCD5FC093F60129B1D0E0C9501E
:10220000DE4F2883AE5FA093F601719A87B98AB931
:1022100015B812B82EE021BB17B81AB818B81BB8F9
:102220007198000026B1CA2FD0E0C950DE4F288334
:10223000CE2FCB5FC093F60129B1D0E0C950DE4F5D
:102240002883AE5FA093F601719A87B98AB915B851
:1022500012B88FE081BB17B81AB818B81BB87198BC
:10226000000086B1B0E0A950BE4F8C93E95FE093C7
:10227000F60189B1F0E0E950FE4F80831092F6013B
:102280009093E9008091E80080FD06C00E9444051B
:102290008091E80080FFFACF8091F7018093F100F0
:1022A0008091F8018093F1008091F9018093F10011
:1022B0008091FA018093F1008091FB018093F100FD
:1022C0008091FC018093F1008091FD018093F100E9
:1022D0008091FE018093F1008091FF018093F100D5
:1022E000809100028093F100809101028093F100BF
:1022F000809102028093F100809103028093F100AB
:10230000809104028093F100809105028093F10096
:10231000809106028093F100809107028093F10082
:10232000809108028093F100809109028093F1006E
:1023300080910A028093F10080910B028093F1005A
:1023400080910C028093F10080910D028093F10046
:1023500080910E028093F10080910F028093F10032
:10236000809110028093F100809111028093F1001E
:10237000809112028093F100809113028093F1000A
:10238000809114028093F100809115028093F100F6
:10239000809116028093F100809117028093F100E2
:1023A000809118028093F100809119028093F100CE
:1023B00080911A028093F10080911B028093F100BA
:1023C00080911C028093F10080911D028093F100A6
:1023D00080911E028093F10080911F028093F10092
:1023E000809120028093F100809121028093F1007E
:1023F000809122028093F100809123028093F1006A
:10240000809124028093F100809125028093F10055
:10241000809126028093F100809127028093F10041
:10242000809128028093F100809129028093F1002D
:1024300080912A028093F10080912B028093F10019
:1024400080912C028093F10080912D028093F10005
:1024500080912E028093F10080912F028093F100F1
:10246000809130028093F100809131028093F100DD
:10247000809132028093F100809133028093F100C9
:10248000809134028093F100809135028093F100B5
:10249000809136028093F1008091E8008E778093DE
:1024A000E800719A8FEF87B98AB97498C895C89572
:1024B00000C0749AC895C89500C0DF91CF91089567
:1024C000719A70989091E30195B935E032B985E53C
:1024D00081BB18B82AEA2BB900007598759A95B98E
:1024E00042E042B921BB18B88BB900007598759AC3
:1024F00095B932B981BB18B850E85BB9000075983E
:10250000759A95B932B981BB18B82BB90000759886
:10251000759A95B942B921BB18B88BB90000759866
:10252000759A8091E6019091E5012091E40125B929
:1025300092B981BB18B880E38BB900007598759A81
:1025400000C0669BFECF0895719A70989091E30148
:1025500095B925E022B985E581BB18B83AEA3BB9BF
:1025600000007598759A95B942E042B931BB18B828
:102570008BB900007598759A95B922B981BB18B8C6
:1025800050E85BB900007598759A95B922B981BB7E
:1025900018B83BB900007598759A95B942B931BB26
:1025A00018B88BB900007598759A95B922B981BB96
:1025B00018B880E18BB900007598759A00C0669BC9
:1025C000FECF7498C895C89500C0749AC895C895F0
:1025D00000C008958F929F92AF92BF92CF92DF92E8
:1025E000EF92FF9217B81AB818B81BB8623071058D
:1025F0008105910509F459C021E02093E9004B01C0
:102600005C01B694A7949794879481149104A104D3
:10261000B10409F43EC0C12CD12C76018091E800B0
:1026200080FD06C00E9444058091E80080FFFACF3B
:1026300090E28091E6014091E4012091E5017198DA
:10264000000036B13093F10039B13093F100719A46
:102650008F5F8093E601811108C02F5F2093E50111
:10266000211103C04F5F4093E40145B922B981BBFA
:10267000915029F780E2C80ED11CE11CF11C809119
:10268000E8008E778093E800C814D904EA04FB04BC
:1026900028F28FEF87B98AB9FF90EF90DF90CF9043
:1026A000BF90AF909F908F9008957198000096B161
:1026B0008091F601E82FF0E0E950FE4F9083E82F7B
:1026C000EF5FE093F60199B1F0E0E950FE4F90839F
:1026D000442309F416C11092F60181E08093E900C9
:1026E0008091E80080FD06C00E9444058091E800CA
:1026F00080FFFACF8091F7018093F1008091F8017B
:102700008093F1008091F9018093F1008091FA01AA
:102710008093F1008091FB018093F1008091FC0196
:102720008093F1008091FD018093F1008091FE0182
:102730008093F1008091FF018093F100809100026D
:102740008093F100809101028093F1008091020258
:102750008093F100809103028093F1008091040244
:102760008093F100809105028093F1008091060230
:102770008093F100809107028093F100809108021C
:102780008093F100809109028093F10080910A0208
:102790008093F10080910B028093F10080910C02F4
:1027A0008093F10080910D028093F10080910E02E0
:1027B0008093F10080910F028093F10080911002CC
:1027C0008093F100809111028093F10080911202B8
:1027D0008093F100809113028093F10080911402A4
:1027E0008093F100809115028093F1008091160290
:1027F0008093F100809117028093F100809118027C
:102800008093F100809119028093F10080911A0267
:102810008093F10080911B028093F10080911C0253
:102820008093F10080911D028093F10080911E023F
:102830008093F10080911F028093F100809120022B
:102840008093F100809121028093F1008091220217
:102850008093F100809123028093F1008091240203
:102860008093F100809125028093F10080912602EF
:102870008093F100809127028093F10080912802DB
:102880008093F100809129028093F10080912A02C7
:102890008093F10080912B028093F10080912C02B3
:1028A0008093F10080912D028093F10080912E029F
:1028B0008093F10080912F028093F100809130028B
:1028C0008093F100809131028093F1008091320277
:1028D0008093F100809133028093F1008091340263
:1028E0008093F100809135028093F100809136024F
:1028F0008093F1008091E8008E778093E800719AD0
:10290000C8CE8E5F8093F601719AC3CE719A8EB154
:102910008E7D8EB980917702909178029C0100970C
:1029200009F076C282E08093E9008091E80082FDA0
:1029300006C00E9444058091E80082FFFACF4091D2
:10294000F100409337029091F1009093380280910A
:10295000F100809339028091F10080933A028091D6
:10296000F10080933B028091F10080933C028091C2
:10297000F10080933D028091F10080933E028091AE
:10298000F10080933F028091F1008093400280919A
:10299000F100809341028091F10080934202809186
:1029A000F100809343028091F10080934402809172
:1029B000F100809345028091F1008093460280915E
:1029C000F100809347028091F1008093480280914A
:1029D000F100809349028091F10080934A02809136
:1029E000F10080934B028091F10080934C02809122
:1029F000F10080934D028091F10080934E0280910E
:102A0000F10080934F028091F100809350028091F9
:102A1000F100809351028091F100809352028091E5
:102A2000F100809353028091F100809354028091D1
:102A3000F100809355028091F100809356028091BD
:102A4000F100809357028091F100809358028091A9
:102A5000F100809359028091F10080935A02809195
:102A6000F10080935B028091F10080935C02809181
:102A7000F10080935D028091F10080935E0280916D
:102A8000F10080935F028091F10080936002809159
:102A9000F100809361028091F10080936202809145
:102AA000F100809363028091F10080936402809131
:102AB000F100809365028091F1008093660280911D
:102AC000F100809367028091F10080936802809109
:102AD000F100809369028091F10080936A028091F5
:102AE000F10080936B028091F10080936C028091E1
:102AF000F10080936D028091F10080936E028091CD
:102B0000F10080936F028091F100809370028091B8
:102B1000F100809371028091F100809372028091A4
:102B2000F100809373028091F10080937402809190
:102B3000F100809375028091F1008093760280917C
:102B4000E8008B778093E800342F20E0292B309326
:102B500078022093770282E08093F501E2E021156C
:102B6000310509F05DC180917702909178022FEFD5
:102B700028B99C01009709F037C182E08093E900F1
:102B80008091E80082FD06C00E9444058091E80023
:102B900082FFFACF4091F100409337029091F1000B
:102BA000909338028091F100809339028091F10076
:102BB00080933A028091F10080933B028091F10072
:102BC00080933C028091F10080933D028091F1005E
:102BD00080933E028091F10080933F028091F1004A
:102BE000809340028091F100809341028091F10036
:102BF000809342028091F100809343028091F10022
:102C0000809344028091F100809345028091F1000D
:102C1000809346028091F100809347028091F100F9
:102C2000809348028091F100809349028091F100E5
:102C300080934A028091F10080934B028091F100D1
:102C400080934C028091F10080934D028091F100BD
:102C500080934E028091F10080934F028091F100A9
:102C6000809350028091F100809351028091F10095
:102C7000809352028091F100809353028091F10081
:102C8000809354028091F100809355028091F1006D
:102C9000809356028091F100809357028091F10059
:102CA000809358028091F100809359028091F10045
:102CB00080935A028091F10080935B028091F10031
:102CC00080935C028091F10080935D028091F1001D
:102CD00080935E028091F10080935F028091F10009
:102CE000809360028091F100809361028091F100F5
:102CF000809362028091F100809363028091F100E1
:102D0000809364028091F100809365028091F100CC
:102D1000809366028091F100809367028091F100B8
:102D2000809368028091F100809369028091F100A4
:102D300080936A028091F10080936B028091F10090
:102D400080936C028091F10080936D028091F1007C
:102D500080936E028091F10080936F028091F10068
:102D6000809370028091F100809371028091F10054
:102D7000809372028091F100809373028091F10040
:102D8000809374028091F100809375028091F1002C
:102D9000809376028091E8008B778093E800342F4F
:102DA00020E0292B309378022093770282E08093F1
:102DB000F501E2E021153105E9F48FEF8BB9000050
:102DC000759A8091E701882371F08091E6018F5F09
:102DD0008093E601882391F12091E4019091E5012F
:102DE00025B992B981BB0895E091F501E03499F1DC
:102DF000E03418F72150310930937802209377029C
:102E0000EF5FE093F501F0E0EA5CFD4F8081D6CF03
:102E1000E091F501E03409F439C1E03408F0A7CEBF
:102E2000C90101979093780280937702EF5FE09356
:102E3000F501F0E0EA5CFD4F20819ACE9091E5012A
:102E40009F5F9093E5012091E4019111C9CF2F5F1D
:102E50002093E401C5CF22E02093E9002091E8000F
:102E600022FD0AC00E9444058091E80082FFFACF4B
:102E700080917702909178022091F100209337029F
:102E80002091F100209338022091F1002093390223
:102E90002091F10020933A022091F10020933B020F
:102EA0002091F10020933C022091F10020933D02FB
:102EB0002091F10020933E022091F10020933F02E7
:102EC0002091F100209340022091F10020934102D3
:102ED0002091F100209342022091F10020934302BF
:102EE0002091F100209344022091F10020934502AB
:102EF0002091F100209346022091F1002093470297
:102F00002091F100209348022091F1002093490282
:102F10002091F10020934A022091F10020934B026E
:102F20002091F10020934C022091F10020934D025A
:102F30002091F10020934E022091F10020934F0246
:102F40002091F100209350022091F1002093510232
:102F50002091F100209352022091F100209353021E
:102F60002091F100209354022091F100209355020A
:102F70002091F100209356022091F10020935702F6
:102F80002091F100209358022091F10020935902E2
:102F90002091F10020935A022091F10020935B02CE
:102FA0002091F10020935C022091F10020935D02BA
:102FB0002091F10020935E022091F10020935F02A6
:102FC0002091F100209360022091F1002093610292
:102FD0002091F100209362022091F100209363027E
:102FE0002091F100209364022091F100209365026A
:102FF0002091F100209366022091F1002093670256
:103000002091F100209368022091F1002093690241
:103010002091F10020936A022091F10020936B022D
:103020002091F10020936C022091F10020936D0219
:103030002091F10020936E022091F10020936F0205
:103040002091F100209370022091F10020937102F1
:103050002091F100209372022091F10020937302DD
:103060002091F100209374022091F10020937502C9
:103070002091F100209376022091E8002B77209395
:10308000E8001092F5019C01E0E094CE22E020934C
:10309000E9002091E80022FD0AC00E9444058091C9
:1030A000E80082FFFACF8091770290917802209118
:1030B000F100209337022091F100209338022091F3
:1030C000F100209339022091F10020933A022091DF
:1030D000F10020933B022091F10020933C022091CB
:1030E000F10020933D022091F10020933E022091B7
:1030F000F10020933F022091F100209340022091A3
:10310000F100209341022091F1002093420220918E
:10311000F100209343022091F1002093440220917A
:10312000F100209345022091F10020934602209166
:10313000F100209347022091F10020934802209152
:10314000F100209349022091F10020934A0220913E
:10315000F10020934B022091F10020934C0220912A
:10316000F10020934D022091F10020934E02209116
:10317000F10020934F022091F10020935002209102
:10318000F100209351022091F100209352022091EE
:10319000F100209353022091F100209354022091DA
:1031A000F100209355022091F100209356022091C6
:1031B000F100209357022091F100209358022091B2
:1031C000F100209359022091F10020935A0220919E
:1031D000F10020935B022091F10020935C0220918A
:1031E000F10020935D022091F10020935E02209176
:1031F000F10020935F022091F10020936002209162
:10320000F100209361022091F1002093620220914D
:10321000F100209363022091F10020936402209139
:10322000F100209365022091F10020936602209125
:10323000F100209367022091F10020936802209111
:10324000F100209369022091F10020936A022091FD
:10325000F10020936B022091F10020936C022091E9
:10326000F10020936D022091F10020936E022091D5
:10327000F10020936F022091F100209370022091C1
:10328000F100209371022091F100209372022091AD
:10329000F100209373022091F10020937402209199
:1032A000F100209375022091F10020937602209185
:1032B000E8002B772093E8001092F5019C01E0E0F4
:1032C0004ECC6F927F928F929F92AF92BF92CF928D
:1032D000DF92EF92FF920F931F93CF93DF93719A38
:1032E0007098813009F406C208F091C182E08093A1
:1032F000E900C12CD12C7601F5E0BF2EC5E5DAEA54
:1033000002E010EA8091E80082FD06C00E944405B8
:103310008091E80082FFFACF40E050E03091E30175
:103320002091E60135B9B2B8C1BB18B8DBB90000CD
:103330007598759A35B902B9D1BB18B8CBB90000E8
:103340007598759A35B9B2B8C1BB18B81BB90000E9
:103350007598759A8091E5019091E40195B982B9CB
:1033600021BB6091F1007091F10078B96BB9000058
:103370007598759A2F5F2093E601211108C08F5F21
:103380008093E501811103C09F5F9093E40100C029
:1033900080E090E0A0E2B0E005C00197A109B1098A
:1033A00009F447C1669BF9CF4F5F5F4F403251052B
:1033B00009F0B8CF8091E8008B778093E80080E433
:1033C000C80ED11CE11CF11CC11480E2D806E10436
:1033D000F10409F097CFE091F601F0E0E950FE4FDB
:1033E0008BE480831092F60181E08093E900809164
:1033F000E80080FD06C00E9444058091E80080FF3F
:10340000FACF8091F7018093F1008091F8018093C9
:10341000F1008091F9018093F1008091FA0180938D
:10342000F1008091FB018093F1008091FC01809379
:10343000F1008091FD018093F1008091FE01809365
:10344000F1008091FF018093F10080910002809350
:10345000F100809101028093F1008091020280933B
:10346000F100809103028093F10080910402809327
:10347000F100809105028093F10080910602809313
:10348000F100809107028093F100809108028093FF
:10349000F100809109028093F10080910A028093EB
:1034A000F10080910B028093F10080910C028093D7
:1034B000F10080910D028093F10080910E028093C3
:1034C000F10080910F028093F100809110028093AF
:1034D000F100809111028093F1008091120280939B
:1034E000F100809113028093F10080911402809387
:1034F000F100809115028093F10080911602809373
:10350000F100809117028093F1008091180280935E
:10351000F100809119028093F10080911A0280934A
:10352000F10080911B028093F10080911C02809336
:10353000F10080911D028093F10080911E02809322
:10354000F10080911F028093F1008091200280930E
:10355000F100809121028093F100809122028093FA
:10356000F100809123028093F100809124028093E6
:10357000F100809125028093F100809126028093D2
:10358000F100809127028093F100809128028093BE
:10359000F100809129028093F10080912A028093AA
:1035A000F10080912B028093F10080912C02809396
:1035B000F10080912D028093F10080912E02809382
:1035C000F10080912F028093F1008091300280936E
:1035D000F100809131028093F1008091320280935A
:1035E000F100809133028093F10080913402809346
:1035F000F100809135028093F10080913602809332
:10360000F1008091E8008E778093E80003C082305B
:1036100009F458C1DF91CF911F910F91FF90EF9066
:10362000DF90CF90BF90AF909F908F907F906F90E2
:1036300008954F5F5F4F4032510549F08091F1008E
:103640008091F1004F5F5F4F40325105B9F7809193
:10365000E8008B778093E80080ECC8168FE1D806ED
:10366000E104F10481F18FEB9FE1A0E0B0E08C195F
:103670009D09AE09BF09E6E0B695A7959795879590
:10368000EA95D1F78C010F5F1F4FC0E0D0E0809129
:10369000E80082FD06C00E9444058091E80082FF98
:1036A000FACF20E230E08091F1008091F1002150CA
:1036B0003109C9F78091E8008B778093E800219663
:1036C000C017D10721F7E091F601F0E0E950FE4F75
:1036D00084E580831092F60181E08093E900809177
:1036E000E80080FD8ECE0E9444058091E80080FFB6
:1036F000FACF87CE42E04093E9009091E30195B97B
:1037000025E022B985E581BB18B83AEA3BB900004B
:103710007598759A95B942B931BB18B88BB9000044
:103720007598759A95B922B981BB18B880E28BB9A2
:1037300000007598759A2091E6013091E50140915D
:10374000E40145B932B921BBC12CD12C7601C0EAC4
:103750008091E80082FD0CC00E9444058091E80041
:1037600082FFFACF2091E6013091E5014091E4011A
:1037700060E070E018B8CBB900007598759A809138
:10378000F1009091F10098B98BB900007598759A85
:103790002F5F2093E601211108C03F5F3093E501C0
:1037A000311103C04F5F4093E40145B932B921BBE9
:1037B00000C080E090E0A0E2B0E004C00197A10961
:1037C000B109D1F0669BFACF6F5F7F4F6032710510
:1037D00089F68091E8008B778093E80080E4C80E3A
:1037E000D11CE11CF11CC11480E2D806E104F104F3
:1037F00009F0AECF80E019C06F5F7F4F6032710576
:1038000049F08091F1008091F1006F5F7F4F60324D
:103810007105B9F78091E8008B778093E80080E428
:10382000C80ED11CE11CF11C81E018B890E99BB9CD
:1038300000007598759A18B81BB800007598759AAD
:10384000882309F42EC1C11480E2D806E104F104F2
:1038500011F18091E80082FD06C00E94440580912C
:10386000E80082FFFACF80E290E02091F100209101
:10387000F1000197D1F78091E8008B778093E80001
:1038800080E4C80ED11CE11CF11CC11480E2D806F2
:10389000E104F104F0F2E091F601F0E0E950FE4FAE
:1038A00084E580831092F60181E08093E9008091A5
:1038B000E80080FDA6CD0E9444058091E80080FFCD
:1038C000FACF9FCD8093E900C12CD12C76012091B5
:1038D000E6013091E5014091E40155E0952ED5E5F2
:1038E000CAEA62E0A62E75E2B72E0FE119E2822E37
:1038F000732E642E15B892B8D1BB18B8CBB900009E
:103900007598759A15B8A2B8C1BB18B8DBB9000094
:103910007598759A45B932B921BB18B8BBB8000083
:103920007598759A45B932B921BB18B80BB9000022
:103930007598759A8091E80082FD0CC00E9444053C
:103940008091E80082FFFACF2091E6013091E501F5
:103950004091E40180E290E05091F1006091F1002B
:1039600068B95BB900007598759A2F5F2093E601DE
:10397000211108C03F5F3093E501311103C04F5F53
:103980004093E40145B932B921BB019729F78091F1
:10399000E8008B778093E80065B872B881BA18B8F0
:1039A0001BB900007598759A00C080E090E0A0E215
:1039B000B0E004C00197A109B10929F1669BFACFD3
:1039C00080E4C80ED11CE11CF11CC11480E8D806AB
:1039D000E104F10409F08BCFE091F601F0E0E95049
:1039E000FE4F8BE480831092F60181E08093E90022
:1039F0008091E80080FD05CD0E9444058091E8009B
:103A000080FFFACFFECC80ECC8168FE7D806E10421
:103A1000F10481F18FEB9FE7A0E0B0E08C199D09E4
:103A2000AE09BF0926E0B695A795979587952A9583
:103A3000D1F78C010F5F1F4FC0E0D0E08091E8000C
:103A400082FD06C00E9444058091E80082FFFACF03
:103A500020E230E08091F1008091F10021503109A5
:103A6000C9F78091E8008B778093E8002196C01712
:103A7000D10721F7E091F601F0E0E950FE4F84E52F
:103A800080831092F60181E08093E9008091E80044
:103A900080FDB7CC0E9444058091E80080FFFACFFA
:103AA000B0CCE091F601F0E0E950FE4F8BE480836A
:103AB0001092F60181E08093E9008091E80080FD9A
:103AC000A0CC0E9444058091E80080FFFACF99CCF9
:103AD000CF93DF9382E08093E900C0E0D2E0809151
:103AE000E80082FD06C00E9444058091E80082FF44
:103AF000FACF80E49091F1008150E1F78091E800E5
:103B00008B778093E800219751F7E091F601F0E080
:103B1000E950FE4F8BE480831092F60181E08093A0
:103B2000E9008091E80080FD06C00E944405809174
:103B3000E80080FFFACF8091F7018093F100809137
:103B4000F8018093F1008091F9018093F100809158
:103B5000FA018093F1008091FB018093F100809144
:103B6000FC018093F1008091FD018093F100809130
:103B7000FE018093F1008091FF018093F10080911C
:103B800000028093F100809101028093F100809106
:103B900002028093F100809103028093F1008091F2
:103BA00004028093F100809105028093F1008091DE
:103BB00006028093F100809107028093F1008091CA
:103BC00008028093F100809109028093F1008091B6
:103BD0000A028093F10080910B028093F1008091A2
:103BE0000C028093F10080910D028093F10080918E
:103BF0000E028093F10080910F028093F10080917A
:103C000010028093F100809111028093F100809165
:103C100012028093F100809113028093F100809151
:103C200014028093F100809115028093F10080913D
:103C300016028093F100809117028093F100809129
:103C400018028093F100809119028093F100809115
:103C50001A028093F10080911B028093F100809101
:103C60001C028093F10080911D028093F1008091ED
:103C70001E028093F10080911F028093F1008091D9
:103C800020028093F100809121028093F1008091C5
:103C900022028093F100809123028093F1008091B1
:103CA00024028093F100809125028093F10080919D
:103CB00026028093F100809127028093F100809189
:103CC00028028093F100809129028093F100809175
:103CD0002A028093F10080912B028093F100809161
:103CE0002C028093F10080912D028093F10080914D
:103CF0002E028093F10080912F028093F100809139
:103D000030028093F100809131028093F100809124
:103D100032028093F100809133028093F100809110
:103D200034028093F100809135028093F1008091FC
:103D300036028093F1008091E8008E778093E8004E
:103D4000DF91CF910895E0EEF1E0A081B1819FEF86
:103D50009C93A081B1818C918F7B8C930190F08199
:103D6000E02D80818F778083ECEDF1E0A081B1813F
:103D70001C92A081B1818C9180648C93A081B181CF
:103D80008C9180628C930190F081E02D8081806124
:103D90008083E091DA01F091DB011082E091D6019D
:103DA000F091D7011082E9E8F1E0A081B1819C9304
:103DB000A081B1818C918F7B8C930190F081E02D5B
:103DC00080818F778083E5E8F1E0A081B1811C924A
:103DD000A081B1818C9180648C93A081B1818C9100
:103DE00080628C930190F081E02D808180618083DE
:103DF000E0918301F09184011082E0917F01F091C4
:103E000080011082089584B7877F84BF88E10FB650
:103E1000F89480936000109260000FBE80E891E0FB
:103E20000FB6F89480936100909361000FBE91E803
:103E300095BF85BF0E9461100C947302CF93DF93EE
:103E4000CDB7DEB769970FB6F894DEBF0FBECDBF12
:103E50000E94031F78948091EC01843031F00E941D
:103E600044058091EC018430D1F70E94A31E8FE3BA
:103E700092E4AFE0B0E00197A109B109000001F0C0
:103E8000D1F7C89500001092780210927702109234
:103E9000F5011092F60180E4E7EFF1E0DF01282F51
:103EA0001D922A95E9F7E7E3F2E0DF011D928A957A
:103EB000E9F7412C512C312C92E0A92E22242A948E
:103EC0007724739422E0622E0E9444058DEBB82E75
:103ED0008091EC018430C1F7209177023091780213
:103EE000C9012115310509F037C1A092E90080917F
:103EF000E80082FD06C00E9444058091E80082FF30
:103F0000FACF2091F100209337029091F100909325
:103F100038028091F100809339028091F100809302
:103F20003A028091F10080933B028091F1008093EE
:103F30003C028091F10080933D028091F1008093DA
:103F40003E028091F10080933F028091F1008093C6
:103F500040028091F100809341028091F1008093B2
:103F600042028091F100809343028091F10080939E
:103F700044028091F100809345028091F10080938A
:103F800046028091F100809347028091F100809376
:103F900048028091F100809349028091F100809362
:103FA0004A028091F10080934B028091F10080934E
:103FB0004C028091F10080934D028091F10080933A
:103FC0004E028091F10080934F028091F100809326
:103FD00050028091F100809351028091F100809312
:103FE00052028091F100809353028091F1008093FE
:103FF00054028091F100809355028091F1008093EA
:1040000056028091F100809357028091F1008093D5
:1040100058028091F100809359028091F1008093C1
:104020005A028091F10080935B028091F1008093AD
:104030005C028091F10080935D028091F100809399
:104040005E028091F10080935F028091F100809385
:1040500060028091F100809361028091F100809371
:1040600062028091F100809363028091F10080935D
:1040700064028091F100809365028091F100809349
:1040800066028091F100809367028091F100809335
:1040900068028091F100809369028091F100809321
:1040A0006A028091F10080936B028091F10080930D
:1040B0006C028091F10080936D028091F1008093F9
:1040C0006E028091F10080936F028091F1008093E5
:1040D00070028091F100809371028091F1008093D1
:1040E00072028091F100809373028091F1008093BD
:1040F00074028091F100809375028091F1008093A9
:1041000076028091E8008B778093E800922E812CD4
:10411000F401E92BCF0190937802809377026092AB
:10412000F50142E0009709F4D3CE0197909378020D
:1041300080937702242F2F5F2093F501E22FF0E088
:10414000EA5CFD4FE081F0E0EF31F10508F0C0CE10
:10415000E45BFF4F0C94EB344091F501403421F0C7
:10416000403408F0B5CEE1CFA092E9008091E8009C
:1041700082FD0AC00E9444058091E80082FFFACFC8
:1041800020917702309178028091F100809337027C
:104190008091F100809338028091F1008093390280
:1041A0008091F10080933A028091F10080933B026C
:1041B0008091F10080933C028091F10080933D0258
:1041C0008091F10080933E028091F10080933F0244
:1041D0008091F100809340028091F1008093410230
:1041E0008091F100809342028091F100809343021C
:1041F0008091F100809344028091F1008093450208
:104200008091F100809346028091F10080934702F3
:104210008091F100809348028091F10080934902DF
:104220008091F10080934A028091F10080934B02CB
:104230008091F10080934C028091F10080934D02B7
:104240008091F10080934E028091F10080934F02A3
:104250008091F100809350028091F100809351028F
:104260008091F100809352028091F100809353027B
:104270008091F100809354028091F1008093550267
:104280008091F100809356028091F1008093570253
:104290008091F100809358028091F100809359023F
:1042A0008091F10080935A028091F10080935B022B
:1042B0008091F10080935C028091F10080935D0217
:1042C0008091F10080935E028091F10080935F0203
:1042D0008091F100809360028091F10080936102EF
:1042E0008091F100809362028091F10080936302DB
:1042F0008091F100809364028091F10080936502C7
:104300008091F100809366028091F10080936702B2
:104310008091F100809368028091F100809369029E
:104320008091F10080936A028091F10080936B028A
:104330008091F10080936C028091F10080936D0276
:104340008091F10080936E028091F10080936F0262
:104350008091F100809370028091F100809371024E
:104360008091F100809372028091F100809373023A
:104370008091F100809374028091F1008093750226
:104380008091F100809376028091E8008B77809392
:10439000E8001092F501C90140E0C4CE332011F4C9
:1043A0000C94BA2BB1E03B1293CDA20160E070E017
:1043B00080E090E0DC014F86588B698B7A8B8B8B89
:1043C0009C8BAD8BBE8B820120E030E040E050E062
:1043D00060E070E084E391E00E943F1079CD0097A7
:1043E00011F00C94282BA092E9008091E80082FD46
:1043F00006C00E9444058091E80082FFFACF209118
:10440000F100209337029091F1009093380280914F
:10441000F100809339028091F10080933A028091FB
:10442000F10080933B028091F10080933C028091E7
:10443000F10080933D028091F10080933E028091D3
:10444000F10080933F028091F100809340028091BF
:10445000F100809341028091F100809342028091AB
:10446000F100809343028091F10080934402809197
:10447000F100809345028091F10080934602809183
:10448000F100809347028091F1008093480280916F
:10449000F100809349028091F10080934A0280915B
:1044A000F10080934B028091F10080934C02809147
:1044B000F10080934D028091F10080934E02809133
:1044C000F10080934F028091F1008093500280911F
:1044D000F100809351028091F1008093520280910B
:1044E000F100809353028091F100809354028091F7
:1044F000F100809355028091F100809356028091E3
:10450000F100809357028091F100809358028091CE
:10451000F100809359028091F10080935A028091BA
:10452000F10080935B028091F10080935C028091A6
:10453000F10080935D028091F10080935E02809192
:10454000F10080935F028091F1008093600280917E
:10455000F100809361028091F1008093620280916A
:10456000F100809363028091F10080936402809156
:10457000F100809365028091F10080936602809142
:10458000F100809367028091F1008093680280912E
:10459000F100809369028091F10080936A0280911A
:1045A000F10080936B028091F10080936C02809106
:1045B000F10080936D028091F10080936E028091F2
:1045C000F10080936F028091F100809370028091DE
:1045D000F100809371028091F100809372028091CA
:1045E000F100809373028091F100809374028091B6
:1045F000F100809375028091F100809376028091A2
:10460000E8008B778093E8002C871B866B857C8580
:10461000692BCB0190937802809377026092F50129
:1046200022E0009711F00C942C2B80E09FEF9A83EE
:104630008983A092E9008091E80082FD06C00E9473
:1046400044058091E80082FFFACF2091F100209389
:1046500037029091F100909338028091F10080939D
:1046600039028091F10080933A028091F1008093A9
:104670003B028091F10080933C028091F100809395
:104680003D028091F10080933E028091F100809381
:104690003F028091F100809340028091F10080936D
:1046A00041028091F100809342028091F100809359
:1046B00043028091F100809344028091F100809345
:1046C00045028091F100809346028091F100809331
:1046D00047028091F100809348028091F10080931D
:1046E00049028091F10080934A028091F100809309
:1046F0004B028091F10080934C028091F1008093F5
:104700004D028091F10080934E028091F1008093E0
:104710004F028091F100809350028091F1008093CC
:1047200051028091F100809352028091F1008093B8
:1047300053028091F100809354028091F1008093A4
:1047400055028091F100809356028091F100809390
:1047500057028091F100809358028091F10080937C
:1047600059028091F10080935A028091F100809368
:104770005B028091F10080935C028091F100809354
:104780005D028091F10080935E028091F100809340
:104790005F028091F100809360028091F10080932C
:1047A00061028091F100809362028091F100809318
:1047B00063028091F100809364028091F100809304
:1047C00065028091F100809366028091F1008093F0
:1047D00067028091F100809368028091F1008093DC
:1047E00069028091F10080936A028091F1008093C8
:1047F0006B028091F10080936C028091F1008093B4
:104800006D028091F10080936E028091F10080939F
:104810006F028091F100809370028091F10080938B
:1048200071028091F100809372028091F100809377
:1048300073028091F100809374028091F100809363
:1048400075028091F100809376028091E8008B7769
:104850008093E8002E871D86AD85BE85A92BCD01EE
:1048600090937802809377026092F50122E000979E
:1048700009F008C744244A94542C2ACB009709F025
:10488000D5C6A092E9008091E80082FD06C00E9492
:1048900044058091E80082FFFACF2091F100209337
:1048A00037029091F100909338028091F10080934B
:1048B00039028091F10080933A028091F100809357
:1048C0003B028091F10080933C028091F100809343
:1048D0003D028091F10080933E028091F10080932F
:1048E0003F028091F100809340028091F10080931B
:1048F00041028091F100809342028091F100809307
:1049000043028091F100809344028091F1008093F2
:1049100045028091F100809346028091F1008093DE
:1049200047028091F100809348028091F1008093CA
:1049300049028091F10080934A028091F1008093B6
:104940004B028091F10080934C028091F1008093A2
:104950004D028091F10080934E028091F10080938E
:104960004F028091F100809350028091F10080937A
:1049700051028091F100809352028091F100809366
:1049800053028091F100809354028091F100809352
:1049900055028091F100809356028091F10080933E
:1049A00057028091F100809358028091F10080932A
:1049B00059028091F10080935A028091F100809316
:1049C0005B028091F10080935C028091F100809302
:1049D0005D028091F10080935E028091F1008093EE
:1049E0005F028091F100809360028091F1008093DA
:1049F00061028091F100809362028091F1008093C6
:104A000063028091F100809364028091F1008093B1
:104A100065028091F100809366028091F10080939D
:104A200067028091F100809368028091F100809389
:104A300069028091F10080936A028091F100809375
:104A40006B028091F10080936C028091F100809361
:104A50006D028091F10080936E028091F10080934D
:104A60006F028091F100809370028091F100809339
:104A700071028091F100809372028091F100809325
:104A800073028091F100809374028091F100809311
:104A900075028091F100809376028091E8008B7717
:104AA0008093E8002A87198649855A85492BCA01CF
:104AB00090937802809377026092F50122E000974C
:104AC00009F0B7C533243A9403CA80E40E947C10ED
:104AD000FFC980E00E946119FBC90E948614F8C9D1
:104AE00041E060E070E082E090E00E94EA12F0C9EC
:104AF00041E060E070E081E090E00E94EA12E8C9E5
:104B000041E060E070E280E090E00E94EA12E0C9DB
:104B100041E060E070E180E090E00E94EA12D8C9D4
:104B200041E062E070E080E090E00E94EA12D0C9CB
:104B300080E00E947C10CCC982E00E946119C8C943
:104B400081E00E946119C4C9332009F4ADC5F1E0C8
:104B50003F12BEC984E391E00E943D1061157105CA
:104B60008105910511F40C94663161307105810560
:104B7000910511F40C946631E091F6018E2F895E57
:104B8000AE2FB0E0A950BE4F2C92EF5FE813F8CFE4
:104B9000F0E0E950FE4F2FEF20831092F601709263
:104BA000E9008091E80080FD06C00E9444058091E4
:104BB000E80080FFFACF8091F7018093F1008091A7
:104BC000F8018093F1008091F9018093F1008091C8
:104BD000FA018093F1008091FB018093F1008091B4
:104BE000FC018093F1008091FD018093F1008091A0
:104BF000FE018093F1008091FF018093F10080918C
:104C000000028093F100809101028093F100809175
:104C100002028093F100809103028093F100809161
:104C200004028093F100809105028093F10080914D
:104C300006028093F100809107028093F100809139
:104C400008028093F100809109028093F100809125
:104C50000A028093F10080910B028093F100809111
:104C60000C028093F10080910D028093F1008091FD
:104C70000E028093F10080910F028093F1008091E9
:104C800010028093F100809111028093F1008091D5
:104C900012028093F100809113028093F1008091C1
:104CA00014028093F100809115028093F1008091AD
:104CB00016028093F100809117028093F100809199
:104CC00018028093F100809119028093F100809185
:104CD0001A028093F10080911B028093F100809171
:104CE0001C028093F10080911D028093F10080915D
:104CF0001E028093F10080911F028093F100809149
:104D000020028093F100809121028093F100809134
:104D100022028093F100809123028093F100809120
:104D200024028093F100809125028093F10080910C
:104D300026028093F100809127028093F1008091F8
:104D400028028093F100809129028093F1008091E4
:104D50002A028093F10080912B028093F1008091D0
:104D60002C028093F10080912D028093F1008091BC
:104D70002E028093F10080912F028093F1008091A8
:104D800030028093F100809131028093F100809194
:104D900032028093F100809133028093F100809180
:104DA00034028093F100809135028093F10080916C
:104DB00036028093F1008091E8008E778093E800BE
:104DC00087C80E94A61084C80E94611081C80097FD
:104DD00009F09AC4A092E9008091E80082FD06C023
:104DE0000E9444058091E80082FFFACF2091F100F3
:104DF000209337029091F100909338028091F10056
:104E0000809339028091F10080933A028091F10001
:104E100080933B028091F10080933C028091F100ED
:104E200080933D028091F10080933E028091F100D9
:104E300080933F028091F100809340028091F100C5
:104E4000809341028091F100809342028091F100B1
:104E5000809343028091F100809344028091F1009D
:104E6000809345028091F100809346028091F10089
:104E7000809347028091F100809348028091F10075
:104E8000809349028091F10080934A028091F10061
:104E900080934B028091F10080934C028091F1004D
:104EA00080934D028091F10080934E028091F10039
:104EB00080934F028091F100809350028091F10025
:104EC000809351028091F100809352028091F10011
:104ED000809353028091F100809354028091F100FD
:104EE000809355028091F100809356028091F100E9
:104EF000809357028091F100809358028091F100D5
:104F0000809359028091F10080935A028091F100C0
:104F100080935B028091F10080935C028091F100AC
:104F200080935D028091F10080935E028091F10098
:104F300080935F028091F100809360028091F10084
:104F4000809361028091F100809362028091F10070
:104F5000809363028091F100809364028091F1005C
:104F6000809365028091F100809366028091F10048
:104F7000809367028091F100809368028091F10034
:104F8000809369028091F10080936A028091F10020
:104F900080936B028091F10080936C028091F1000C
:104FA00080936D028091F10080936E028091F100F8
:104FB00080936F028091F100809370028091F100E4
:104FC000809371028091F100809372028091F100D0
:104FD000809373028091F100809374028091F100BC
:104FE000809375028091F100809376028091E800B1
:104FF0008B778093E8002C831B826B817C81692BEB
:10500000CB0190937802809377026092F50122E0C1
:10501000009709F07CC34FEFA092E9008091E8006F
:1050200082FD08C0498F0E9444058091E800498DA7
:1050300082FFF8CF2091F100209337029091F10088
:10504000909338028091F100809339028091F100B1
:1050500080933A028091F10080933B028091F100AD
:1050600080933C028091F10080933D028091F10099
:1050700080933E028091F10080933F028091F10085
:10508000809340028091F100809341028091F10071
:10509000809342028091F100809343028091F1005D
:1050A000809344028091F100809345028091F10049
:1050B000809346028091F100809347028091F10035
:1050C000809348028091F100809349028091F10021
:1050D00080934A028091F10080934B028091F1000D
:1050E00080934C028091F10080934D028091F100F9
:1050F00080934E028091F10080934F028091F100E5
:10510000809350028091F100809351028091F100D0
:10511000809352028091F100809353028091F100BC
:10512000809354028091F100809355028091F100A8
:10513000809356028091F100809357028091F10094
:10514000809358028091F100809359028091F10080
:1051500080935A028091F10080935B028091F1006C
:1051600080935C028091F10080935D028091F10058
:1051700080935E028091F10080935F028091F10044
:10518000809360028091F100809361028091F10030
:10519000809362028091F100809363028091F1001C
:1051A000809364028091F100809365028091F10008
:1051B000809366028091F100809367028091F100F4
:1051C000809368028091F100809369028091F100E0
:1051D00080936A028091F10080936B028091F100CC
:1051E00080936C028091F10080936D028091F100B8
:1051F00080936E028091F10080936F028091F100A4
:10520000809370028091F100809371028091F1008F
:10521000809372028091F100809373028091F1007B
:10522000809374028091F100809375028091F10067
:10523000809376028091E8008B778093E8002E833C
:105240001D82AD81BE81A92BCD0190937802809300
:1052500077026092F50122E0009709F06AC26FEFD1
:10526000A092E9008091E80082FD0AC0498F6F8B0F
:105270000E9444058091E800498D6F8982FFF6CF36
:105280002091F100209337029091F1009093380221
:105290008091F100809339028091F10080933A026D
:1052A0008091F10080933B028091F10080933C0259
:1052B0008091F10080933D028091F10080933E0245
:1052C0008091F10080933F028091F1008093400231
:1052D0008091F100809341028091F100809342021D
:1052E0008091F100809343028091F1008093440209
:1052F0008091F100809345028091F10080934602F5
:105300008091F100809347028091F10080934802E0
:105310008091F100809349028091F10080934A02CC
:105320008091F10080934B028091F10080934C02B8
:105330008091F10080934D028091F10080934E02A4
:105340008091F10080934F028091F1008093500290
:105350008091F100809351028091F100809352027C
:105360008091F100809353028091F1008093540268
:105370008091F100809355028091F1008093560254
:105380008091F100809357028091F1008093580240
:105390008091F100809359028091F10080935A022C
:1053A0008091F10080935B028091F10080935C0218
:1053B0008091F10080935D028091F10080935E0204
:1053C0008091F10080935F028091F10080936002F0
:1053D0008091F100809361028091F10080936202DC
:1053E0008091F100809363028091F10080936402C8
:1053F0008091F100809365028091F10080936602B4
:105400008091F100809367028091F100809368029F
:105410008091F100809369028091F10080936A028B
:105420008091F10080936B028091F10080936C0277
:105430008091F10080936D028091F10080936E0263
:105440008091F10080936F028091F100809370024F
:105450008091F100809371028091F100809372023B
:105460008091F100809373028091F1008093740227
:105470008091F100809375028091F1008093760213
:105480008091E8008B778093E80028871F82EF8166
:10549000F885E92BCF019093780280937702609290
:1054A000F50122E0009709F057C18FEF0E946F10BD
:1054B0000C94681F0E94A4120C94681F0E94601232
:1054C0000C94681F0E949D100C94681F81E00E943C
:1054D00079100C94681F81E00E947F100C94681F63
:1054E00080E00E9479100C94681F7092E90020E01F
:1054F00030E08091E80080FD08C079010E944405F9
:105500008091E80080FFFACF970180E41092F100CB
:105510008150E1F78091E8008E778093E8002F5F5B
:105520003F4F211548E0340721F70C94681FF89489
:105530007092E00080E28093D8001092C9008FE45E
:1055400093ECA0E0B0E00197A109B109000001F0DF
:10555000D1F7C89500001DBA109268001CBC10BE9F
:105560001FBA10927A0010926E0010926F00109283
:105570007000109271001092C9001092BC0011B816
:1055800014B817B81AB81DB810BA12B815B818B8A8
:105590001BB81EB811BA0C9400FE0C94681F8091C1
:1055A000F601E82FF0E0E950FE4F22E420838F5F00
:1055B000E82FF0E0E950FE4FB0821092F6017092B1
:1055C000E9008091E80080FDF6CA0E9444058091C0
:1055D000E80080FFFACFEFCA8091F601E82FF0E0F3
:1055E000E950FE4F7082E82FEF5FF0E0E950FE4F88
:1055F00010828E5FE82FF0E0E950FE4F708210922B
:10560000F6017092E9008091E80080FDD4CA0E9402
:1056100044058091E80080FFFACFCDCA0E94461071
:105620000C94681F0E94681D0C94681F203409F4B4
:1056300072C7019790937802809377022F5F20932F
:10564000F501E22FF0E0EA5CFD4F30800C94681F1A
:10565000203411F40C94A533019790937802809331
:1056600077022F5F2093F501E22FF0E0EA5CFD4F17
:1056700070817A831982009711F40C9419232034D5
:1056800009F4CBC2019790937802809377022F5F41
:105690002093F501E22FF0E0EA5CFD4F8081498024
:1056A0005A80482A0C94681F8BE891E00E943D10B4
:1056B000611571058105910509F4E3C46130710537
:1056C0008105910509F4DDC4E091F6018E2F895E14
:1056D000AE2FB0E0A950BE4F2C92EF5FE813F8CF89
:1056E000F0E0E950FE4F2FEF20831092F601709208
:1056F000E9008091E80080FD5ECA0E944405809127
:10570000E80080FFFACF57CA203409F4A0C30197FC
:1057100090937802809377022F5F2093F501E22F18
:10572000F0E0EA5CFD4F4081009709F475CC20342D
:10573000E1F1019790937802809377022F5F209395
:10574000F501E22FF0E0EA5CFD4F6081009709F47B
:1057500087CD203409F444C1019790937802809357
:1057600077022F5F2093F501E22FF0E0EA5CFD4F16
:1057700080819CCE920140E050E060E070E0CB017F
:105780004F86388B498B5A8B6B8B7C8B8D8B9E8B8A
:10579000820120E030E040E050E060E070E08BE823
:1057A00091E00E943F100C94681FA092E900809144
:1057B000E80082FD08C0498F0E9444058091E800FE
:1057C000498D82FFF8CF8091F1008093370280915C
:1057D000F100809338028091F1008093390280912A
:1057E000F10080933A028091F10080933B02809116
:1057F000F10080933C028091F10080933D02809102
:10580000F10080933E028091F10080933F028091ED
:10581000F100809340028091F100809341028091D9
:10582000F100809342028091F100809343028091C5
:10583000F100809344028091F100809345028091B1
:10584000F100809346028091F1008093470280919D
:10585000F100809348028091F10080934902809189
:10586000F10080934A028091F10080934B02809175
:10587000F10080934C028091F10080934D02809161
:10588000F10080934E028091F10080934F0280914D
:10589000F100809350028091F10080935102809139
:1058A000F100809352028091F10080935302809125
:1058B000F100809354028091F10080935502809111
:1058C000F100809356028091F100809357028091FD
:1058D000F100809358028091F100809359028091E9
:1058E000F10080935A028091F10080935B028091D5
:1058F000F10080935C028091F10080935D028091C1
:10590000F10080935E028091F10080935F028091AC
:10591000F100809360028091F10080936102809198
:10592000F100809362028091F10080936302809184
:10593000F100809364028091F10080936502809170
:10594000F100809366028091F1008093670280915C
:10595000F100809368028091F10080936902809148
:10596000F10080936A028091F10080936B02809134
:10597000F10080936C028091F10080936D02809120
:10598000F10080936E028091F10080936F0280910C
:10599000F100809370028091F100809371028091F8
:1059A000F100809372028091F100809373028091E4
:1059B000F100809374028091F100809375028091D0
:1059C000F100809376028091E8008B778093E80065
:1059D0001092F501809177029091780220E03CCC02
:1059E000A092E9008091E80082FD0AC0498F6F8B88
:1059F0000E9444058091E800498D6F8982FFF6CFAF
:105A00008091F100809337028091F10080933802F9
:105A10008091F100809339028091F10080933A02E5
:105A20008091F10080933B028091F10080933C02D1
:105A30008091F10080933D028091F10080933E02BD
:105A40008091F10080933F028091F10080934002A9
:105A50008091F100809341028091F1008093420295
:105A60008091F100809343028091F1008093440281
:105A70008091F100809345028091F100809346026D
:105A80008091F100809347028091F1008093480259
:105A90008091F100809349028091F10080934A0245
:105AA0008091F10080934B028091F10080934C0231
:105AB0008091F10080934D028091F10080934E021D
:105AC0008091F10080934F028091F1008093500209
:105AD0008091F100809351028091F10080935202F5
